:1000000020E101207D4600006546010035460000E4
:10001000354600003546000035460000000000006F
:10002000000000000000000000000000B5420000D9
:1000300035460000000000005D420000374F01001F
:10004000A1430000A1430000A1430000A143000020
:10005000A1430000A1430000A1430000A143000010
:10006000A1430000A1430000A1430000A143000000
:10007000A1430000A1430000A1430000A1430000F0
:10008000A1430000A1430000A1430000A1430000E0
:10009000A1430000A1430000A1430000A1430000D0
:1000A000A1430000A1430000A1430000A1430000C0
:1000B000A1430000A1430000A1430000A1430000B0
:1000C000A1430000A1430000A1430000A1430000A0
:1000D000A1430000A1430000A1430000A143000090
:1000E000A1430000A1430000A1430000A143000080
:1000F000A1430000A1430000A1430000A143000070
:1001000001F0FF01102A2BDB10F0070F08D010F8C8
:10011000013B013A8B422DD010F0070F42B3F6D1CC
:10012000F0B441EA012141EA014122F007047FF0E5
:1001300000070023F0E80256083C85EA010586EA3C
:10014000010685FA47F5A3FA87F586FA47F6A5FA78
:1001500087F68EB9EED1F0BC01F0FF0102F0070284
:1001600032B110F8013B013A83EA010313B1F8D12F
:100170000020704701387047002D06BF3546033810
:10018000073815F0010F07D1013015F4807F02BF49
:10019000013015F4C03F0130F0BC0138704700BF9A
:1001A00081F0004102E000BF83F0004330B54FEA28
:1001B00041044FEA430594EA050F08BF90EA020F95
:1001C0001FBF54EA000C55EA020C7FEA645C7FEA28
:1001D000655C00F0E2804FEA5454D4EB5555B8BF4B
:1001E0006D420CDD2C4480EA020281EA030382EABC
:1001F000000083EA010180EA020281EA0303362D4E
:1002000088BF30BD11F0004F4FEA01314FF4801C20
:100210004CEA113102D0404261EB410113F0004F32
:100220004FEA03334CEA133302D0524263EB4303E9
:1002300094EA050F00F0A780A4F10104D5F1200E87
:100240000DDB02FA0EFC22FA05F2801841F10001E2
:1002500003FA0EF2801843FA05F359410EE0A5F1B6
:1002600020050EF1200E012A03FA0EFC28BF4CF0E7
:10027000020C43FA05F3C01851EBE37101F000459D
:1002800007D54FF0000EDCF1000C7EEB00006EEBAA
:100290000101B1F5801F1BD3B1F5001F0CD3490834
:1002A0005FEA30004FEA3C0C04F101044FEA44528B
:1002B00012F5800F80F09A80BCF1004F08BF5FEA12
:1002C000500C50F1000041EB045141EA050130BDF2
:1002D0005FEA4C0C404141EB0101013C28BFB1F504
:1002E000801FE9D291F0000F04BF01460020B1FA4F
:1002F00081F308BF2033A3F10B03B3F120020CDA22
:100300000C3208DD02F1140CC2F10C0201FA0CF0FF
:1003100021FA02F10CE002F11402D8BFC2F1200C64
:1003200001FA02F120FA0CFCDCBF41EA0C0190401A
:10033000E41AA2BF01EB0451294330BD6FEA040463
:100340001F3C1CDA0C340EDC04F11404C4F120024E
:1003500020FA04F001FA02F340EA030021FA04F360
:1003600045EA030130BDC4F10C04C4F1200220FAB7
:1003700002F001FA04F340EA0300294630BD21FAF5
:1003800004F0294630BD94F0000F83F4801306BFBB
:1003900081F480110134013D4EE77FEA645C18BFAF
:1003A0007FEA655C29D094EA050F08BF90EA020F46
:1003B00005D054EA000C04BF1946104630BD91EA3E
:1003C000030F1EBF0021002030BD5FEA545C05D141
:1003D0004000494128BF41F0004130BD14F5800480
:1003E0003CBF01F5801130BD01F0004545F0FE41F4
:1003F00041F470014FF0000030BD7FEA645C1ABF29
:10040000194610467FEA655C1CBF0B46024650EA5F
:10041000013406BF52EA033591EA030F41F400218B
:1004200030BD00BF90F0000F04BF0021704730B511
:100430004FF4806404F132044FF000054FF00001E6
:1004400050E700BF90F0000F04BF0021704730B5A7
:100450004FF4806404F1320410F0004548BF40427C
:100460004FF000013EE700BF42004FEAE2014FEAD1
:1004700031014FEA02701FBF12F07F4393F07F4FAC
:1004800081F06051704732F07F4208BF704793F0AF
:100490007F4F04BF41F40021704730B54FF46074C2
:1004A00001F0004521F000411CE700BF50EA0102C5
:1004B00008BF704730B54FF000050AE050EA01026E
:1004C00008BF704730B511F0004502D5404261EBDE
:1004D00041014FF4806404F132045FEA915C3FF41F
:1004E000D8AE4FF003025FEADC0C18BF03325FEABC
:1004F000DC0C18BF033202EBDC02C2F1200300FA6D
:1005000003FC20FA02F001FA03FE40EA0E0021FA91
:1005100002F11444BDE600BF70B54FF0FF0C4CF47F
:10052000E06C1CEA11541DBF1CEA135594EA0C0F31
:1005300095EA0C0F00F0DEF82C4481EA030621EA6C
:100540004C5123EA4C5350EA013518BF52EA0335A7
:1005500041F4801143F4801338D0A0FB02CE4FF059
:100560000005E1FB02E506F00042E0FB03E54FF089
:100570000006E1FB03569CF0000F18BF4EF0010E81
:10058000A4F1FF04B6F5007F64F5407404D25FEA7D
:100590004E0E6D4146EB060642EAC62141EA555130
:1005A0004FEAC52040EA5E504FEACE2EB4F1FD0C72
:1005B00088BFBCF5E06F1ED8BEF1004F08BF5FEAF0
:1005C000500E50F1000041EB045170BD06F00046A2
:1005D00046EA010140EA020081EA0301B4EB5C044F
:1005E000C2BFD4EB0C0541EA045170BD41F4801147
:1005F0004FF0000E013C00F3AB8014F1360FDEBF6C
:10060000002001F0004170BDC4F10004203C35DA47
:100610000C341BDC04F11404C4F1200500FA05F3CA
:1006200020FA04F001FA05F240EA020001F000426B
:1006300021F0004110EBD37021FA04F642EB0601E1
:100640005EEA430E08BF20EAD37070BDC4F10C040B
:10065000C4F1200500FA04F320FA05F001FA04F2CF
:1006600040EA020001F0004110EBD37041F10001BB
:100670005EEA430E08BF20EAD37070BDC4F12005C6
:1006800000FA05F24EEA020E20FA04F301FA05F22E
:1006900043EA020321FA04F001F0004121FA04F2D6
:1006A00020EA020000EBD3705EEA430E08BF20EAA6
:1006B000D37070BD94F0000F0FD101F000464000E0
:1006C00041EB010111F4801F08BF013CF7D041EA62
:1006D000060195F0000F18BF704703F00046520066
:1006E00043EB030313F4801F08BF013DF7D043EA37
:1006F0000603704794EA0C0F0CEA135518BF95EAED
:100700000C0F0CD050EA410618BF52EA4306D1D173
:1007100081EA030101F000414FF0000070BD50EA92
:10072000410606BF1046194652EA430619D094EA1C
:100730000C0F02D150EA013613D195EA0C0F05D106
:1007400052EA03361CBF104619460AD181EA03015A
:1007500001F0004141F0FE4141F470014FF0000012
:1007600070BD41F0FE4141F4780170BD70B54FF0AD
:10077000FF0C4CF4E06C1CEA11541DBF1CEA13552D
:1007800094EA0C0F95EA0C0F00F0A7F8A4EB05040F
:1007900081EA030E52EA03354FEA013100F0888006
:1007A0004FEA03334FF0805545EA131343EA1263CF
:1007B0004FEA022245EA111545EA10654FEA002684
:1007C0000EF000419D4208BF964244F1FD0404F53D
:1007D000407402D25B084FEA3202B61A65EB030599
:1007E0005B084FEA32024FF480104FF4002CB6EB56
:1007F000020E75EB030E22BFB61A754640EA0C00D6
:100800005B084FEA3202B6EB020E75EB030E22BF15
:10081000B61A754640EA5C005B084FEA3202B6EB56
:10082000020E75EB030E22BFB61A754640EA9C0015
:100830005B084FEA3202B6EB020E75EB030E22BFE5
:10084000B61A754640EADC0055EA060E18D04FEAA3
:10085000051545EA16754FEA06164FEAC30343EA43
:1008600052734FEAC2025FEA1C1CC0D111F4801F10
:100870000BD141EA00014FF000004FF0004CB6E709
:1008800011F4801F04BF01430020B4F1FD0C88BFA8
:10089000BCF5E06F3FF6AFAEB5EB030C04BFB6EBB3
:1008A000020C5FEA500C50F1000041EB045170BDA6
:1008B0000EF0004E4EEA113114EB5C04C2BFD4EBD3
:1008C0000C0541EA045170BD41F480114FF0000E57
:1008D000013C90E645EA060E8DE60CEA135594EAD3
:1008E0000C0F08BF95EA0C0F3FF43BAF94EA0C0FD6
:1008F0000AD150EA01347FF434AF95EA0C0F7FF44B
:1009000025AF104619462CE795EA0C0F06D152EA9E
:1009100003353FF4FDAE1046194622E750EA410682
:1009200018BF52EA43067FF4C5AE50EA41047FF493
:100930000DAF52EA43057FF4EBAE12E74FF0FF3CF8
:1009400006E000BF4FF0010C02E000BF4FF0010CC9
:100950004DF804CD4FEA410C7FEA6C5C4FEA430C42
:1009600018BF7FEA6C5C1BD001B050EA410C0CBF91
:1009700052EA430C91EA030F02BF90EA020F0020F3
:10098000704710F1000F91EA030F58BF994208BF5A
:1009900090422CBFD8176FEAE37040F00100704717
:1009A0004FEA410C7FEA6C5C02D150EA013C07D16E
:1009B0004FEA430C7FEA6C5CD6D152EA033CD3D0B9
:1009C0005DF8040B704700BF8446104662468C46B3
:1009D0001946634600E000BF01B5FFF7B7FF0028E6
:1009E00048BF10F1000F01BD4DF808EDFFF7F4FF0F
:1009F0000CBF012000205DF808FB00BF4DF808ED9A
:100A0000FFF7EAFF34BF012000205DF808FB00BFBC
:100A10004DF808EDFFF7E0FF94BF012000205DF8DE
:100A200008FB00BF4DF808EDFFF7CEFF94BF012093
:100A300000205DF808FB00BF4DF808EDFFF7C4FF8C
:100A400034BF012000205DF808FB00BF4FEA4102DF
:100A500012F5001215D211D56FF47873B3EB625210
:100A600012D94FEAC12343F0004343EA505311F037
:100A7000004F23FA02F018BF404270474FF00000C9
:100A8000704750EA013005D111F0004008BF6FF007
:100A9000004070474FF00000704700BF4FEA41022E
:100AA000B2F1E04324BFB3F5001CDCF1FE5C0DD9CC
:100AB00001F0004C4FEAC0024CEA5070B2F1004F16
:100AC00040EB830008BF20F00100704711F0804F19
:100AD00021D113F13872BCBF01F00040704741F4DE
:100AE00080114FEA5252C2F11802C2F1200C10FAE2
:100AF0000CF320FA02F018BF40F001004FEAC123C6
:100B00004FEAD32303FA0CFC40EA0C0023FA02F369
:100B10004FEA4303CCE77FEA625307D150EA01333F
:100B20001EBF4FF0FE4040F44000704701F000400F
:100B300040F0FE4040F40000704700BF80F00040ED
:100B400002E000BF81F0004142001FBF5FEA4103A5
:100B500092EA030F7FEA226C7FEA236C6AD04FEAA5
:100B60001262D2EB1363C1BFD218414048404140EA
:100B7000B8BF5B42192B88BF704710F0004F40F49C
:100B8000000020F07F4018BF404211F0004F41F4B8
:100B9000000121F07F4118BF494292EA030F3FD084
:100BA000A2F1010241FA03FC10EB0C00C3F1200397
:100BB00001FA03F100F0004302D5494260EB400026
:100BC000B0F5000F13D3B0F1807F06D340084FEA91
:100BD000310102F10102FE2A51D2B1F1004F40EB86
:100BE000C25008BF20F0010040EA030070474900EE
:100BF00040EB0000013A28BFB0F5000FEDD2B0FA8B
:100C000080FCACF1080CB2EB0C0200FA0CF0AABFAD
:100C100000EBC25052421843BCBFD040184370474B
:100C200092F0000F81F4000106BF80F40000013251
:100C3000013BB5E74FEA41037FEA226C18BF7FEA28
:100C4000236C21D092EA030F04D092F0000F08BF6A
:100C50000846704790EA010F1CBF0020704712F051
:100C60007F4F04D1400028BF40F00040704712F190
:100C700000723CBF00F50000704700F0004343F0F5
:100C8000FE4040F4000070477FEA226216BF08462B
:100C90007FEA23630146420206BF5FEA412390EAEE
:100CA000010F40F4800070474FF0000304E000BFE4
:100CB00010F0004348BF40425FEA000C08BF704795
:100CC00043F0964301464FF000001CE050EA010259
:100CD00008BF70474FF000030AE000BF50EA01026E
:100CE00008BF704711F0004302D5404261EB41015B
:100CF0005FEA010C02BF84460146002043F0B64380
:100D000008BFA3F18053A3F50003BCFA8CF2083AA4
:100D1000A3EBC25310DB01FA02FC634400FA02FCAD
:100D2000C2F12002BCF1004F20FA02F243EB0200B4
:100D300008BF20F00100704702F1200201FA02FC16
:100D4000C2F1200250EA4C0021FA02F243EB020009
:100D500008BF20EADC7070474FF0FF0C1CEAD0524D
:100D60001EBF1CEAD15392EA0C0F93EA0C0F6FD00E
:100D70001A4480EA010C400218BF5FEA41211ED0EC
:100D80004FF0006343EA501043EA5111A0FB0131D8
:100D90000CF00040B1F5000F3EBF490041EAD371AD
:100DA0005B0040EA010062F17F02FD2A1DD8B3F129
:100DB000004F40EBC25008BF20F00100704790F098
:100DC000000F0CF0004C08BF49024CEA502040EAEA
:100DD00051207F3AC2BFD2F1FF0340EAC2507047B0
:100DE00040F400004FF00003013A5DDC12F1190FEE
:100DF000DCBF00F000407047C2F10002410021FA60
:100E000002F1C2F1200200FA02FC5FEA310040F177
:100E1000000053EA4C0308BF20EADC70704792F0F0
:100E2000000F00F0004C02BF400010F4000F013A28
:100E3000F9D040EA0C0093F0000F01F0004C02BF23
:100E4000490011F4000F013BF9D041EA0C018FE792
:100E50000CEAD15392EA0C0F18BF93EA0C0F0AD098
:100E600030F0004C18BF31F0004CD8D180EA0100BE
:100E700000F00040704790F0000F17BF90F0004F57
:100E8000084691F0000F91F0004F14D092EA0C0F39
:100E900001D142020FD193EA0C0F03D14B0218BFCC
:100EA000084608D180EA010000F0004040F0FE4012
:100EB00040F40000704740F0FE4040F440007047AE
:100EC0004FF0FF0C1CEAD0521EBF1CEAD15392EA2D
:100ED0000C0F93EA0C0F69D0A2EB030280EA010C1D
:100EE00049024FEA402037D04FF0805343EA1111B6
:100EF00043EA10130CF000408B4238BF5B0042F114
:100F00007D024FF4000C8B4224BF5B1A40EA0C00B8
:100F1000B3EB510F24BFA3EB510340EA5C00B3EBEA
:100F2000910F24BFA3EB910340EA9C00B3EBD10FD8
:100F300024BFA3EBD10340EADC001B0118BF5FEA2A
:100F40001C1CE0D1FD2A3FF650AF8B4240EBC25053
:100F500008BF20F0010070470CF0004C4CEA502014
:100F60007F32C2BFD2F1FF0340EAC250704740F463
:100F700000004FF00003013A37E792F0000F00F055
:100F8000004C02BF400010F4000F013AF9D040EAD3
:100F90000C0093F0000F01F0004C02BF490011F467
:100FA000000F013BF9D041EA0C0195E70CEAD1535F
:100FB00092EA0C0F08D142027FF47DAF93EA0C0F46
:100FC0007FF470AF084676E793EA0C0F04D14B022A
:100FD0003FF44CAF08466EE730F0004C18BF31F0DC
:100FE000004CCAD130F000427FF45CAF31F00043D6
:100FF0007FF43CAF5FE700BF4FF0FF3C06E000BF6F
:101000004FF0010C02E000BF4FF0010C4DF804CD91
:101010004FEA40024FEA41037FEA226C18BF7FEAA1
:10102000236C11D001B052EA530C18BF90EA010FA3
:1010300058BFB2EB030088BFC81738BF6FEAE17032
:1010400018BF40F0010070477FEA226C02D15FEACE
:10105000402C05D17FEA236CE4D15FEA412CE1D03A
:101060005DF8040B704700BF844608466146FFE701
:101070000FB5FFF7C9FF002848BF10F1000F0FBDE3
:101080004DF808EDFFF7F4FF0CBF012000205DF8DC
:1010900008FB00BF4DF808EDFFF7EAFF34BF012061
:1010A00000205DF808FB00BF4DF808EDFFF7E0FFFA
:1010B00094BF012000205DF808FB00BF4DF808ED4B
:1010C000FFF7D2FF94BF012000205DF808FB00BFAE
:1010D0004DF808EDFFF7C8FF34BF012000205DF890
:1010E00008FB00BF4FEA4002B2F1FE4F0FD34FF0B2
:1010F0009E03B3EB12620DD94FEA002343F0004385
:1011000010F0004F23FA02F018BF404270474FF032
:101110000000704712F1610F01D1420205D110F0B9
:10112000004008BF6FF0004070474FF0000070476C
:1011300053B94AB9002908BF00281CBF4FF0FF313E
:101140004FF0FF3000F0A4B9ADF1080C6DE904CE0A
:1011500000F03EF8DDF804E0DDE9022304B070475A
:1011600038B505460C462846214600220023FFF7E5
:1011700045FC28B928462146BDE8384000F00AB8A9
:10118000284604F1004100F005F8404261EB4101BE
:1011900038BD00BFD0B50C4B002206460F46FFF706
:1011A000BBF900F077F90446FFF73CF9074B002242
:1011B000FFF7B2F902460B4630463946FEF7F4FF18
:1011C00000F068F92146D0BD0000F03D0000F0417C
:1011D0002DE9F047089E0D4604468E46002B40F050
:1011E00082808A42174646D9B2FA82F24AB1C2F1E7
:1011F000200105FA02F320FA01F1974041EA030EBB
:1012000094404FEA1748230CBEFBF8FCB9B208FB28
:101210001CEE43EA0E430CFB01F098420AD9FB187E
:101220000CF1FF3580F01681984240F21381ACF149
:10123000020C3B441B1AA4B2B3FBF8F008FB1033BA
:1012400044EA034400FB01F1A14209D93C1900F131
:10125000FF3380F00181A14240F2FE8002383C441D
:10126000641A40EA0C4000211EB1D4400023C6E9B4
:101270000043BDE8F08702B9FFDEB2FA82F2002A2D
:101280004FD1CB1B4FEA174E1FFA87F80121B3FB52
:10129000FEFC250C0EFB1C3345EA034508FB0CF352
:1012A000AB4207D97D190CF1FF3002D2AB4200F2FC
:1012B000E7808446ED1AA3B2B5FBFEF00EFB105595
:1012C00043EA054408FB00F8A04507D93C1900F1A2
:1012D000FF3302D2A04500F2D7801846A4EB0804E1
:1012E00040EA0C40C0E78B4208D9002E00F0AF80E6
:1012F0000021C6E900050846BDE8F087B3FA83F18E
:1013000000294BD1AB4202D3824200F2B780841A4B
:1013100065EB030301209E46002EAAD0C6E9004ECD
:10132000A7E7C2F1200C01FA02F3974020FA0CF073
:101330004FEA174E21FA0CFC1843BCFBFEF1050CDA
:101340000EFB11CC1FFA87F845EA0C4501FB08F3A8
:10135000AB4204FA02F409D97D1901F1FF3C80F097
:101360008B80AB4240F2888002393D44EB1A85B253
:10137000B3FBFEF00EFB103345EA034500FB08F318
:10138000AB4207D97D1900F1FF3C71D2AB426FD956
:1013900002383D44EB1A40EA014178E7C1F1200CE4
:1013A0008B4022FA0CF71F4320FA0CF405FA01F3E4
:1013B0004FEA174E25FA0CF51C43230CB5FBFEF93A
:1013C0001FFA87F80EFB195543EA054509FB08FA91
:1013D000AA4502FA01F200FA01F308D97D1909F1D0
:1013E000FF3047D2AA4545D9A9F102093D44A5EBF2
:1013F0000A05A4B2B5FBFEF00EFB105544EA054405
:1014000000FB08F8A04507D93C1900F1FF352DD2A3
:10141000A0452BD902383C4440EA0940A4EB08041B
:10142000A0FB02894C45C6464D4619D316D05EB185
:10143000B3EB0E0264EB050404FA0CFCCA404CEA60
:101440000202CC40C6E900240021BDE8F087314605
:1014500030460EE7AC46EDE6184601E74345E6D2D6
:10146000B8EB020E69EB07050138E0E72846D3E741
:1014700060468FE78146BAE7614677E708464BE763
:10148000ACF1020C3D4415E702383C4426E700BFAE
:10149000704700BF4A0011D212F5001211D20DD5CB
:1014A0006FF47873B3EB62520ED44FEAC12343F06A
:1014B000004343EA505323FA02F070474FF0000014
:1014C000704750EA013002D14FF0FF3070474FF0C3
:1014D000000070474FEA410C7FEA6C5C02D150EA91
:1014E000013C0AD14FEA430C7FEA6C5C02D152EA1C
:1014F000033C02D14FF0000070474FF001007047ED
:1015000010F8012B11F8013B012A28BF9A42F7D0AD
:10151000D01A7047034613F8012B002AFBD1181A82
:10152000013870470000000030B585B0FEF7F4FFC9
:1015300004460D46089B4FF00040D840FEF782FF5E
:1015400022462B46FEF7E8FF02460B46CDE9002374
:1015500009A3D3E90023CDE90223FFF76DFA40B9CF
:1015600069460A9B099AD1E9000107F033FE05B0EC
:1015700030BD02A9F5E700BF0000C0FFFFFFDF415B
:101580002DE9F04782B007460D4616461C46DDF8A9
:1015900028A0C868FEF768FF80468946F068FEF715
:1015A00063FF02460B4640464946FEF7B5FFECB1E5
:1015B00080468946E068FEF757FF02460B464046E4
:1015C0004946FEF7F1FD804621F00044DAF80C00B0
:1015D000FEF74AFF02460B4640462146FFF7C6F893
:1015E0000DA3D3E90023FFF713FA50B10B9B00932F
:1015F000534632462946384607F056FF02B0BDE84A
:10160000F0877C69064B00934FF49F73054A0649A7
:101610003846A0470120F1E77B14AE47E17A943FBA
:101620005C3F0300CC3E0300C83C03000000000008
:101630002DE9F04188B005460E461F460C78092C6E
:1016400013D0072C11D0012C40F0338110780128E1
:1016500040F044811868FEF707FF0E9BC3E90001C4
:101660000024204608B0BDE8F081072C1ED0092CCC
:1016700040F086801078072800F09780092840F015
:10168000D580136913F1800F00F0E4806C696FF06E
:101690007F02039202939E4B01939E4B0093302353
:1016A0009D4A9E492846A0470124DAE71369002B8A
:1016B0003BD1D2F80C804FF060514046FFF708FD57
:1016C000002841D04FF060514046FFF73BFA944963
:1016D000FFF7FEFC00283DD1072C00F0CD803F68CD
:1016E000F068FEF7C1FE04460D463846FEF7BCFE24
:1016F00007AB02930E9B0833019305260096224602
:101700002B46FFF711FF07990E9BD9601F22304629
:1017100014F045FAFEF796FE01F100431946FFF773
:1017200095F90E9B986100249BE76C690022039257
:1017300002937C4B0193774B00932523764A77499C
:101740002846A04701248CE741464FF06050FFF740
:10175000F9F9BCE76C6900224FF07C53CDE9042312
:101760004046FEF781FECDE902016F4B01936F4BBE
:1017700000932623684A6E492846A047012470E753
:101780006E69204607F082FC0446092007F07EFCC3
:1017900003900294674B0193674B009329235E4AA1
:1017A00066492846B04701245BE7136913F5004FEB
:1017B0000ED06C69624A03920293624B0193554BBF
:1017C00000932B23544A55492846A047012448E753
:1017D000D2F80C804FF05E514046FFF779FCF8B12B
:1017E0004FF05E514046FFF7ADF95749FFF770FCE7
:1017F00000283FF471AF6C690022544BCDE90423FB
:101800004046FEF731FECDE90201514B0193474BB3
:1018100000932C23404A46492846A047012420E74C
:1018200041464FF05E50FFF78DF9DEE76E6907F035
:101830002DFC0446092007F029FC039002943D4B3F
:101840000193444B00932F23334A3C492846B04729
:10185000012406E74FF06E51D068FFF711FC002815
:101860007FF43AAF6C693C4B009331232A4A3B49E1
:101870002846A0470124F4E6F068FEF7F5FD04468B
:101880000D463868FEF7F0FD02460B462046294615
:10189000FEF742FE1CA3D3E90023FEF767FF07AB68
:1018A0000E9A083207F048FC079B0E9AD36000247A
:1018B000D7E64669204607F0E9FB0446012007F019
:1018C000E5FB03900294264B01931B4B00934E23A0
:1018D000114A1A492846B0470124C2E66F6907F049
:1018E000D5FB0646012007F0D1FB039002961C4B66
:1018F0000193184B00934F23074A10492846B847D5
:10190000AFE600BFAFF30080140014001400243FC2
:10191000204D0300AC4C0300544C0300883F0300EF
:101920006F120333EC440300E84C0300F44C030053
:10193000C84C03006440030050460300884903007C
:101940000080FFFF0C4D03006F1283320000F03E59
:10195000144D030040460300284D0300C83C03001B
:101960004C4D030000000000F8B5C1F30A57A7F280
:10197000FF35132D0B460C460246064620DC002D93
:1019800040DB354F2F4101EA070C5CEA000C14D014
:101990002FA3D3E90023FEF709FC00220023FFF761
:1019A0004BF840B1002C03DA4FF480132B411C4458
:1019B00024EA070400263246234610461946F8BD9D
:1019C000332D07DDB5F5806FF7D1FEF7EFFB02464B
:1019D0000B46F2E7A7F213474FF0FF3C2CFA07F74C
:1019E0000742EAD01AA3D3E90023FEF7DFFB002267
:1019F0000023FFF721F80028DDD0002C1BDB26EAAE
:101A00000706D8E712A3D3E90023FEF7CFFB002295
:101A10000023FFF711F80028CDD0002C02DB0026B0
:101A20003446C8E724F000430C4A1E43002E18BF7A
:101A300014460026BFE7142D08D00122C5F1340357
:101A400002FA03F39E1928BFA418D8E70134D6E799
:101A50009C7500883CE4377EFFFF0F000000F0BF5C
:101A60002DE9F04F446A99B016461F46CDE9046748
:101A7000DDF8948005463CB9102010F037FFC0E92E
:101A8000014468620460C4606B6A196851B15A68A5
:101A90004A60012393408B60284617F01DFA6B6A59
:101AA00000221A603B1EB9BF23F0004305930023B8
:101AB000C8F80030DDF81490A74BBCBF0122C8F86D
:101AC000002033EA090319D1249A42F20F731360FC
:101AD000C9F31303334300F06D85269B53B99F4B25
:101AE00023E09F4B03930833269A1360039819B0A1
:101AF000BDE8F08F994B03930333F5E7DDE9043438
:101B0000CDE90C34DDE90C0100220023FEF76CFF67
:101B1000804660B1249A01231360269B002B00F0BD
:101B20004685904B269A1360013B0393DEE716AB84
:101B3000019317AB00932846DDE90C2317F004FC52
:101B4000C9F30A548346002C7ED00D9BCDF84C80FF
:101B5000C3F31303DDE90C0143F07F5141F440115D
:101B6000A4F2FF34804B0022FEF71EFB74A3D3E9DE
:101B70000023FEF7D1FC74A3D3E90023FEF716FB84
:101B8000064620460F46FEF75DFC71A3D3E900230D
:101B9000FEF7C2FC02460B4630463946FEF706FB0E
:101BA00006460F46FEF752FF0022824600233046CB
:101BB0003946FEF723FF48B15046FEF743FC324654
:101BC0003B46FEF711FF08B90AF1FF3ABAF1160FCA
:101BD00057D8664B03EBCA03D3E90023DDE90C01B8
:101BE000FEF70CFF00284ED00AF1FF3A00230F93B6
:101BF000169B1C1B631E099345BFC4F1010306938A
:101C0000002300234CBF09930693BAF1000F3CDB7D
:101C1000099BCDF838A05344099300230A93229BD3
:101C2000092B00F2B580052BC4BF043B2293229BF5
:101C3000A3F10203CCBF00240124032B00F2B480E3
:101C4000DFE803F02D987AA4DDE916431C4404F282
:101C50003243202BC3BFC3F1400304F2124009FA00
:101C600003F3C3F12003C6BF26FA00F0184306FAB7
:101C700003F0FEF7D7FB0123A1F1F871013C1393A8
:101C800070E70123B3E70F90B2E7069BA3EB0A03CB
:101C90000693CAF100030A9300230E93BFE70023C3
:101CA0000B93239B002B00F382804FF00109CDF8AA
:101CB00020904B46CDF88C906E6A00227260042210
:101CC00002F114009842716877D9284617F0D0F8CD
:101CD0006B6A30601B680393089B0E2B00F2EE804A
:101CE000002C00F0EB80BAF1000F7ADD1F4A0AF0F9
:101CF0000F0302EBC303D3E900341AF4807FCDE96C
:101D000010344FEA2A145CD0194BDDE90C01D3E9F9
:101D10000823FEF72BFDCDE9040104F00F0403278F
:101D2000134E002C4FD1DDE91023DDE90401FEF74D
:101D30001DFDCDE904016EE00123B1E7AFF30080A2
:101D400061436F63A787D23FB3C8608B288AC63FC1
:101D5000FB799F501344D33F0000F07FF350030002
:101D6000EA500300C75003000000F83FB019030019
:101D70008819030000230B93239B0AEB030909F145
:101D80000103012B0893B8BF012395E70123F2E774
:101D90000124002322930B944FF0FF390022CDF849
:101DA00020901223239287E701230B93F4E7DDF8B9
:101DB0008C90CDF820904B467EE701317160520047
:101DC0007EE70227ACE7E10708D5DDE91001D6E997
:101DD0000023FEF7A1FBCDE910010137641008369E
:101DE0009FE700F0A580CAF10004A44BA44E04F0C4
:101DF0000F0203EBC203D3E90023DDE90C01FEF778
:101E00008BFBCDE90401241100230227002C40F0B4
:101E10008480002B8DD10F9B002B00F08B80DDE99F
:101E20000434CDE91034DDE91001964B0022FEF7B1
:101E3000E5FD00287ED0089B002B7BD0B9F1000F78
:101E400038DDDDE91001904B0022FEF765FBCDE99E
:101E500004010AF1FF3801374C463846FEF7F2FA22
:101E6000DDE90423FEF758FB884B0022FEF79EF9BC
:101E7000A1F15076CDE910011196002C5DD1DDE97C
:101E80000401834B0022FEF78FF902460B46CDE991
:101E90000423109A3346FEF7CFFD002840F09782C6
:101EA000DDE90401109A06F10043FEF7A7FD0028C2
:101EB00040F08B82DDE90C34CDE90434179B002B14
:101EC000C0F25181BAF10E0F00F34D816B4B03EB61
:101ED000CA03D3E90034CDE90634239B002B80F2FA
:101EE000DB80089B002B00F3D78040F06D82684BAD
:101EF0000022DDE90601FEF70FFBDDE90423FEF712
:101F000091FD089C2646002840F04382039F312320
:101F100007F8013B0AF1010A3FE2E20705D5D6E9DD
:101F20000023FEF7F9FA01370123641008366DE744
:101F3000022770E7089CD0468FE703994F4B214456
:101F400012910B9903EBC403DDE9106753E90223F7
:101F5000002946D04F490020FEF708FC3B46324698
:101F6000FEF722F9CDE91001039FDDE90401FEF738
:101F70006DFD0446FEF766FA02460B46DDE90401F4
:101F8000FEF712F9303402460B46CDE9042307F878
:101F9000014BDDE91023FEF731FD002865D1DDE9B5
:101FA000042338490020FEF7FFF8DDE91023FEF78F
:101FB00025FD002840F0B680129B9F423FF47AAF87
:101FC000DDE91001304B0022FEF7A6FA2E4BCDE9D9
:101FD00010010022DDE90401FEF79EFACDE90401BB
:101FE000C3E730463946FEF797FACDE91001129B58
:101FF000039C1493DDE90401FEF728FD1590FEF71C
:1020000021FA02460B46DDE90401FEF7CDF8159BE7
:10201000303304F8013B129B9C4206460F464FF0BA
:10202000000224D11B4BDDE91001FEF7BFF8024688
:102030000B4630463946FEF7FFFC002871D1DDE93A
:10204000102314490020FEF7AFF802460B46304635
:102050003946FEF7D3FC00283FF42CAF149F7B1EBB
:10206000149317F8013C302BF8D0C24649E0064BD8
:10207000FEF752FACDE90401BCE700BFB019030036
:10208000881903000000F03F0000244000001C40BD
:10209000000014400000E03FDDE90489039FDDE912
:1020A000062340464946FEF761FBFEF7CFFC044697
:1020B000FEF7C8F9DDE90623FEF72EFA04F1300633
:1020C0000B46024649464046FEF76EF807F8016B9C
:1020D000039E089BBE1BB34238D102460B46FEF757
:1020E00065F8DDE9062380468946FEF7A5FC58BB66
:1020F000DDE9062340464946FEF776FC08B1E107D4
:1021000022D42846594616F0E7FE00233B70249B54
:102110000AF101001860269B002B3FF4E7AC1F601A
:10212000E4E427463B461F4613F8012D392A07D120
:10213000039A9A42F7D10399302208F101080A70F4
:102140001A7801321A7090E7D046EBE7A14B0022D3
:10215000FEF7E2F90022002380468946FEF744FCA0
:1021600000289CD0CDE70B9A002A00F0CD80229A5F
:10217000012A00F3AF80139A002A00F0A78003F22F
:1021800033430A9C069F069A1A440692099A012133
:102190001A442846099216F042FF0646002F0CDD2D
:1021A000099B002B09DDBB42069AA8BF3B46D21A09
:1021B0000692099AFF1AD31A09930A9BF3B10B9B53
:1021C000002B00F0A580002C10DD31462246284669
:1021D00011F044FC5A4601460646284616F028FFF0
:1021E00059468046284616F077FEC3460A9B1A1BBE
:1021F00004D05946284611F031FC83460121284677
:1022000016F00DFF0E9B002B044640F383801A4608
:102210000146284611F022FC229B012B04467CDD5E
:102220004FF00008236904EB8303186916F0A9FE38
:10223000C0F12000099B184410F01F0000F08E80B0
:10224000C0F12003042B40F38780C0F11C00069BE3
:1022500003440693099B034407440993069B002B00
:1022600005DD59461A46284616F07EFF8346099B2F
:10227000002B05DD21461A46284616F075FF044658
:102280000F9B002B6CD02146584616F0CCFF00283F
:1022900066DA002359460A22284616F034FE0B9BC4
:1022A0000AF1FF3A8346002B00F08B813146002370
:1022B0000A22284616F027FEB9F1000F064600F361
:1022C0009180229B022B40F38D8051E0169BC3F13D
:1022D000360356E7089B5C1E0A9BA342BFBF0A9BBE
:1022E0000A94E21A0E9BB6BF9B181C1B0E93089B08
:1022F000B8BF0024002BB9BF069B089A069F089B15
:10230000BCBF9F1A00233EE70A9C069F0B9E45E731
:102310000A9A6EE7229B012B19DC049BBBB9059B33
:10232000C3F313039BB9059B23F000431B0D1B054F
:1023300083B1069B01330693099B013309934FF048
:1023400001080E9B002B7FF46DAF012072E74FF068
:102350000008F6E79846F4E780D018461C3076E788
:10236000089B002B38DC229B022B35DDDDF820900A
:10237000B9F1000F0DD121464B460522284616F033
:10238000C2FD01460446584616F04DFF00283FF7AF
:10239000BDAD239B039F6FEA030A4FF0000821465F
:1023A000284616F099FD002E3FF4ABAEB8F1000FB1
:1023B00005D0B04503D04146284616F08DFD314684
:1023C000284616F089FD9CE600242646E1E7C24631
:1023D00026469BE5000024400B9BDDF82090002B57
:1023E00000F0F680002F05DD31463A46284616F00B
:1023F000BBFE0646B8F1000F55D07168284616F0AE
:1024000037FD326902320746920006F10C010C30AA
:1024100016F07EFA01223946284616F0A5FE039BE7
:1024200001330893039B4B440A93049B03F001037D
:10243000B04609930646089B2146013B5846049343
:1024400016F032FC034630330690414658460B9353
:1024500016F0E9FE324681462146284616F0FEFE79
:10246000C2680B9B074602BB0146584616F0DBFECE
:102470000B9B024639462846CDE90B3216F02CFD5F
:10248000229B0C9A089F43EA0201099B0B430B9B7A
:102490000DD1392B29D0B9F1000F01DD069B313365
:1024A000049A13707BE73046B9E70122E2E7B9F1FD
:1024B000000F06DB229941EA0909099959EA01014D
:1024C00020D1002AECDD594601222846089316F057
:1024D0004BFE2146834616F0A6FE0028089B02DC30
:1024E000DED1DA07DCD5392BD8D1049A3923137021
:1024F0003B461F46013B17F8012C392A50D00132C8
:102500001A704CE7002A03DD392BEED00133C7E700
:10251000089A0A9902F8013C8A422AD059460023B7
:102520000A22284616F0EFFCB04583464FF0000320
:102530004FF00A024146284607D116F0E4FC8046D7
:102540000646089B0133089375E716F0DCFC31461C
:10255000804600230A22284616F0D5FC0646F0E7FE
:10256000B9F1000F039ACCBF4F46012717444FF033
:102570000008594601222846089316F0F5FD214629
:10258000834616F050FE0028B2DC02D1089BDB0720
:10259000AED43B461F4613F8012D302AFAD0FEE692
:1025A000039A9A42A5D10AF1010A312379E7134B24
:1025B000FFF7BBBA269B002B7FF493AA104BFFF7C3
:1025C000B4BAB9F1000F03DC229B022B3FF7D0AE67
:1025D000039F2146584616F067FB00F1300307F8C9
:1025E000013B039ABA1A9145BADD594600230A22E3
:1025F000284616F088FC8346EBE700BFC650030070
:10260000EA50030038B525280CD00C4B1A680C4949
:1026100088541B684F2B0ED8084B1B680133074AA0
:10262000136038BD054C236805480025C55411F0DA
:1026300056FB2560F5E75023F1E700BF5405002065
:102640000005002008B511F064FB00F0D1FA00F09D
:10265000D9FA054811F04FFB044B01221A700448C7
:1026600011F049FB08BD00BF781A0300505F01203C
:10267000881A030070B504460D4600F001FA294699
:10268000114811F038FB6E1E1DB100F0E7F9354618
:10269000F9E70E4811F02FFB21460D4811F02BFBF6
:1026A00000F072FA11F019FB651E1CB100F0D6F9AA
:1026B0002C46F9E711F012FB00F066FA054811F01C
:1026C0001AFB00F01FFA70BD941A0300A81A030049
:1026D000B81A0300CC1A030070B582B050225149D9
:1026E00016F088FA10B1012002B070BD4E4910F00A
:1026F0005FFE0546D8B150224C4916F07BFA50BB1C
:10270000494910F055FEB8B116F0F0F80146484BB3
:102710001860B0B1474B00221A60B0F5406F15D970
:102720004FF44062444811F0E6FA0020DCE74348E9
:1027300011F0E1FA0020D7E7414811F0DCFA00205F
:10274000D2E7404811F0D7FA0020CDE73E4811F01B
:10275000D2FA0020C8E750223C49284616F04AFA2F
:1027600060BB002412E03A4811F0C5FA394B195DFC
:10277000394811F0C0FA013414F0070F03D02C4B84
:102780001B689C420CD1354811F0B5FA284B1B68E8
:10279000A34209D914F0070FE5D0002CE6D1E2E7F7
:1027A0002F4811F0A8FAF1E714F0070F01D100202B
:1027B0009AE72A4811F09FFA002095E75021284611
:1027C00011F091FA064610F001041FD100238DF894
:1027D0000630B44224D2631C2A5D8DF80420EB5CE1
:1027E00002348DF8053001A811F0EEF9002811DB54
:1027F000104A13681749C854013313600C4A126811
:102800009342E6D1174811F076FA07E0164811F026
:1028100072FA03E001A9154811F06DFA002063E790
:10282000002061E7DC1A0300E01A0300101B03001C
:10283000FC040020F8040020741B0300E41A0300C9
:10284000181B0300481B0300A41B0300C01B03004C
:10285000C81B030058050020D41B0300B44E03001E
:10286000D01B0300241C0300DC1B0300041C03001A
:1028700010B5044650223B4916F0BCF948B93A4914
:102880003A4811F038FA3A493A4811F034FA00203F
:1028900010BD50223849204616F0ACF930BB324901
:1028A000364811F028FA364811F025FA354811F06B
:1028B00022FA354811F01FFA344811F01CFA344856
:1028C00011F019FA334811F016FA334811F013FADF
:1028D000324811F010FA324811F00DFA314811F077
:1028E0000AFA314811F007FA0020D1E72046FFF735
:1028F000F3FE0028CCD050222C49204616F07AF95D
:1029000018BB2B4910F054FDB0B115F0EFFF041EB9
:102910000DDD2749002010F04BFDA0B115F0E6FFBA
:10292000011E0BDA234811F0E6F90020B0E7224837
:1029300011F0E1F90020ABE70A2101242046FFF75E
:1029400099FE0020A4E70A21F8E750221B492046FF
:1029500016F050F908B101209AE700F0D3F80020F2
:1029600096E700BF341C03003C1C0300601C0300FE
:10297000741C03007C1C03008C1C0300941C0300CB
:10298000B44E03009C1C0300C41C0300F41C030091
:102990001C1D0300501D0300881D0300C01D030003
:1029A000DC1D03000C1E0300541E0300841E0300E4
:1029B000E01A0300B41E03008C1E0300D81E03009F
:1029C000144B1B7803B9704710B5134910F0F0FC95
:1029D00004465022114916F00DF940B9104A114928
:1029E000114811F088F9114811F085F910BD5022F5
:1029F0000F49204616F0FEF810B900F0C5F8F2E7CE
:102A00002046FFF735FF0028EDD02146094811F098
:102A100072F9E8E7505F0120E01A0300E01E0300AE
:102A2000E81E0300F41E0300F81E0300881A0300CA
:102A30000C1F0300181F030010B5064B1C688C42C6
:102A400000D90C4618B12246034915F061FF204613
:102A500010BD00BFF80400205805002010B5064B3B
:102A60001C6804F10C0004F0E1FF00B910BD03493B
:102A7000A06813F03EF9F9E718130020341F030093
:102A800000B5ADF5C05D81B04FF440610DEB0100C4
:102A9000FFF7D2FFB0F5406F01D100230FE04FF4F4
:102AA00040620146154811F026F90DF5C05D01B0F0
:102AB0005DF804FB803A0DF8032001339BB2B3F5B7
:102AC000406F08D20DF54062D256002AF2DB803A00
:102AD0000DF80320F1E70A4B186800210C3004F0D0
:102AE00023FA034600B14068996900239942DCDD6E
:102AF0001DF90320C2540133F8E700BF441F03004F
:102B000018130020F8B51B4811F0F5F8002420E058
:102B10001F57194D286800210C3004F0A9F9C66828
:102B2000286800210C3004F0A3F90069381AFEF778
:102B3000BFF83146FEF710F9FDF796FC02460B464A
:102B40000E4811F0D8F8082C02D80D4811F0D3F82F
:102B50000134092C0AD8084B186800210C3004F005
:102B600087F903460028D3D04368D1E7054811F020
:102B7000C2F8F8BD6C1F030018130020781F030073
:102B8000801F0300D81D0300F8B515F07EFE4E012E
:102B9000430146EAD0621B1A62EB0102560246EA82
:102BA000D3565F0232463B1841EB0202970147EAD7
:102BB00093679E01F31A67EB02021C1842EB0105B2
:102BC00023462946002C75F1000206DBDB0B43EAA5
:102BD0004141064811F08FF8F8BD47F6FF73E3183E
:102BE0004FF0000145EB0101F0E700BF841F030037
:102BF00008B5034811F07FF8FFF7C6FF08BD00BF16
:102C0000941F0300F0B58DB0B04B1B6813F0010F9B
:102C100012D004A807F078FCAD4803689B69002136
:102C20009847D8B1AA4BD3F8100100283AD0002217
:102C3000A84913F05EF835E0A548A74B03600023D0
:102C4000C0F8E430C0F80C31C0F810319F4B0122BD
:102C50001A60A24AA24911F00BFDDAE79C4BD3F8A7
:102C6000E460062E30D89A4F07EB461C0CF10404A2
:102C700004AD0FCD0FC495E80F0084E80F000022CB
:102C8000CCF818200136C7F8E460D7F80C31F918F1
:102C900081F8E82003F13C02924947F82210013301
:102CA000C7F80C3104A80BF00BFC894803689B693A
:102CB0000921984790B1864BD3F8100190B30922AF
:102CC000844913F016F82DE0D3F810010028E9D05C
:102CD00007230022844913F00CF8E3E77C4BD3F878
:102CE000E460062E30D87A4F07EB461C0CF1040442
:102CF00004AD0FCD0FC495E80F0084E80F00092242
:102D0000CCF818200136C7F8E460D7F80C31F91870
:102D100081F8E82003F13C02744947F8221001339E
:102D2000C7F80C3104A809F037FE694803689B69AD
:102D30000321984790B1664BD3F8100190B303225A
:102D4000644912F0D6FF2DE0D3F810010028E9D035
:102D500007230922644912F0CCFFE3E75C4BD3F868
:102D6000E460062E30D85A4F07EB461C0CF10404E1
:102D700004AD0FCD0FC495E80F0084E80F000322C7
:102D8000CCF818200136C7F8E460D7F80C31F918F0
:102D900081F8E82003F13C02554947F8221001333D
:102DA000C7F80C3104A80AF0C5FC494803689B69C0
:102DB0000421984790B1464BD3F8100190B30422F8
:102DC000444912F096FF2DE0D3F810010028E9D015
:102DD00007230322444912F08CFFE3E73C4BD3F86E
:102DE000E460062E30D83A4F07EB461C0CF1040481
:102DF00004AD0FCD0FC495E80F0084E80F00042246
:102E0000CCF818200136C7F8E460D7F80C31F9186F
:102E100081F8E82003F13C02364947F822100133DB
:102E2000C7F80C3104A80CF061FD294803689B69C0
:102E30001621984790B1264BD3F8100190B3162273
:102E4000244912F056FF2DE0D3F810010028E9D0F4
:102E500007230422244912F04CFFE3E71C4BD3F86C
:102E6000E460062E4AD81A4F07EB461C0CF1040406
:102E700004AD0FCD0FC495E80F0084E80F001622B3
:102E8000CCF818200136C7F8E460D7F80C31F918EF
:102E900081F8E82003F13C02174947F8221001337A
:102EA000C7F80C3104A80CF031FD094803689B6990
:102EB0001921984760B3064BD3F8100100284BD076
:102EC0001922044912F015FF46E000BF5C110020F2
:102ED00004120020B41F030050200300805301207F
:102EE000593C0100199A000004200300419F000092
:102EF000459D0000F1A00000F1980000D3F81001FA
:102F00000028CFD0072316224F4912F0F2FEC9E75E
:102F10004E4BD3F8E460062E30D84C4F07EB461CDE
:102F20000CF1040404AD0FCD0FC495E80F0084E844
:102F30000F001922CCF818200136C7F8E460D7F842
:102F40000C31F91881F8E82003F13C02404947F8B8
:102F500022100133C7F80C3104A80CF04BFB3B489E
:102F600003689B690121984790B1384BD3F8100151
:102F700090B30122374912F0BCFE2DE0D3F81001C6
:102F80000028E9D0072319222F4912F0B2FEE3E707
:102F90002E4BD3F8E460062E28D82C4F07EB461CA6
:102FA0000CF1040404AD0FCD0FC495E80F0084E8C4
:102FB0000F000122CCF818201644C7F8E460D7F8B7
:102FC0000C31F91881F8E82003F13C02224947F856
:102FD00022100133C7F80C31204B1B6813F0010F8E
:102FE0000ED01F4B1F4A1A600DB0F0BDD3F8100170
:102FF0000028F1D007230122134912F07AFEEBE7F3
:10300000194810F0B8FE0146164C20602346174AB6
:1030100043F8042FA36004F10C05002202920193EF
:103020004FF4A0330093124B084A284612F08FFA4F
:10303000284604F0E3F9094B01221A600D4A0E49B3
:10304000204611F015FBCCE70420030004120020F9
:1030500025A30000B41F03004D9B00005811002061
:103060001813002060110020C89801000C240300F0
:103070001C130020805301205B3C010008B50B6845
:1030800001330B60014B1B68984708BD000000200E
:10309000014B1860704700BF0000002000B583B0EE
:1030A00002460B460021019101A9034800F04EF9A8
:1030B00003B05DF804FB00BF7D30000010B584B0A4
:1030C0000446019002910021039101A9054800F0F6
:1030D0003DF9039B029A934201DA0022E2540398DD
:1030E00004B010BDCB3D01002DE9F04383B0044690
:1030F00008461546A38B13F0080F05D103F0070609
:1031000000230093019369E0012909D043F02003D3
:10311000A38385F31188BFF36F8F03B0BDE8F083FD
:1031200043F01003A383F4E7204610F0A9FE57E014
:10313000D4F818904A466946204610F0BAFE002797
:103140005AE023691F680621204610F072FE4FF0F6
:10315000000951E023695F680421204610F069FEF0
:103160004FF0000948E023699F680521204610F0D0
:1031700060FE4FF000093FE0002246E0002244E0FC
:1031800043F00803A38385F31188BFF36F8F0029F1
:1031900044D1009B2BB14B4642466946204610F075
:1031A000FEFE17B125492046B8474FF02003EFF344
:1031B000118583F31288BFF36F8FA38B23F008036D
:1031C000A383A38B13F0100F2ED023F01003A3833F
:1031D0000120A68B06F0070600289AD00228A3D06B
:1031E000002896D00128A3D00328AAD00428B1D063
:1031F0000528B8D00027B946A38B03F00708B045CF
:10320000BAD0A268002AB9D001221146002AB7D14B
:10321000009A002AB4D1002FB2D1D2E74A464146E3
:10322000204610F00EFEB4E713F0200F04D023F078
:103230002003A3830220CCE70020CAE7CD3F010092
:1032400010B404460268002013780749595C11F055
:10325000040F06D000EB8000013203EB4000303851
:10326000F2E7226010BC7047A54F03002DE9F04F34
:1032700083B004460D4601929A46DDF83080D3783B
:10328000314A13F802B00BF0030B6F2B0FD006D9A5
:10329000702B0FD0782B10D14FF0100923E0582B52
:1032A00002D04FF00A091EE04FF010091BE04FF06A
:1032B000080918E04FF0100915E04FF00A0912E074
:1032C000D2B23032D2B208F8012D32463B46204607
:1032D0002946FDF72DFFBD4208BFB44218D3D045A3
:1032E00016D904460D464E4600274A463B46204620
:1032F0002946FDF71DFF092AE2D9BBF1010F03D0D2
:10330000D2B25732D2B2DEE7D2B23732D2B2DAE735
:10331000019B1B7813F0200F05D0B9F1080F06D0E0
:10332000B9F1100F09D0404603B0BDE8F08F019A03
:10333000937843F008039370F5E7019A937843F08C
:1033400010039370EFE700BFA54F03002DE9F04F86
:1033500093B006460D469246039300249AF8000067
:10336000002800F0D684252808D00AF1010A294651
:10337000B0470028C0F2CE840134EFE70023069363
:1033800007930B93089309930A930AF101089AF89B
:103390000130252B01D001272CE00AF102088DF81D
:1033A0002330A8E19DF8203043F004038DF820304D
:1033B000FFB108F101081CE09DF8203043F008033C
:1033C0008DF82030F4E79DF8203043F010038DF89D
:1033D0002030EDE79DF8203043F020038DF82030B9
:1033E000E6E79DF8203043F040038DF82030DFE71A
:1033F00000274FB398F80030203B102BF8D801A2DB
:1034000052F823F0C7330000F1330000F13300001D
:10341000D5330000F1330000F1330000F133000038
:10342000F1330000F1330000F1330000F13300000C
:10343000B9330000F1330000A5330000F133000080
:10344000F1330000E33300009DF8203003F0440323
:10345000442B6DD0CDF814809DF8203043F08003CC
:103460008DF8203098F800302A2B68D005A8FFF797
:10347000E7FE059B984512D09DF8203043F080036D
:103480008DF820300990C3F34003002860DB002250
:1034900013439DF8202063F341028DF82020059B03
:1034A00005931B782E2B14BF002301239DF82120A8
:1034B00063F341028DF82120002B4BD0059B5A1C51
:1034C00005925B782A2B48D005A8FFF7B9FE0A9031
:1034D0009DF82030C3F34003002847DB002213434C
:1034E0009DF8202063F341028DF82020DDF8148040
:1034F00098F800304C3B2E2B00F2DC80DFE803F024
:10350000CADADADADADADADADADADADADADADADA2B
:10351000DADADADADADADADADADADADA38DA6ADA1D
:1035200051DADADADADADADAC0DADADADADAB6009C
:103530009DF820306FF386138DF820308AE79DF8D0
:10354000213043F001038DF8213043460133A7E7D2
:1035500001229DE7DDF81480CAE79DF8213043F091
:1035600004038DF8213002F10108C1E70122B6E71A
:1035700008F1010298F80130682B08D09DF821303D
:10358000022161F3C6038DF8213090462BE09DF8AF
:103590002130012262F3C6038DF8213008F10208C0
:1035A00021E008F1010298F801306C2B08D09DF859
:1035B0002130032161F3C6038DF82130904612E0DB
:1035C0009DF82130042262F3C6038DF8213008F102
:1035D000020808E09DF82130052262F3C6038DF849
:1035E000213008F1010818F8013B8DF82330A3F1D0
:1035F0004102372A00F25081DFE812F026014E0125
:103600004E014E012601260126014E014E014E01BA
:103610004E014E014E014E014E014E014E014E0132
:103620004E014E014E014E014E0113014E014E015D
:103630004E014E014E014E014E014E0126014E013A
:10364000130163002601260126014E0163004E018D
:103650004E014E014E012F0113013F014E014E015B
:103660003F014E0113014E014E0113019DF821301F
:10367000062262F3C6038DF8213008F10108B2E793
:103680009DF82130072262F3C6038DF8213008F13E
:103690000108A8E79DF82130082262F3C6038DF8DF
:1036A000213008F101089DF8203043F002038DF825
:1036B000203098E79DF821306FF3C6038DF8213054
:1036C00091E79DF82220012161F302028DF822206A
:1036D0009DF8212002F07802402A00F0AA80632B96
:1036E00000F0AE809DF82030C3F34002174367F32B
:1036F00041038DF820309DF8213013F0010F00F0C8
:10370000DA80039B1A1D03921F68002FC0F2CB8042
:103710009DF8213013F0040F00F0DF80039B1A1D89
:103720000392D3F800B0BBF1000FC0F2CD800023AC
:1037300009930A939DF8223003F007039DF82110A6
:10374000C1F3C301012B00F0D180022B00F01681E0
:10375000042B00F06781032B00F07E819DF8209000
:1037600019F00303029340F07D819DF82330253B3F
:10377000532B00F23382DFE813F081013102310272
:1037800031023102310231023102310231023102A1
:103790003102310231023102310231023102310291
:1037A0003102310231023102310231023102310281
:1037B0003102310231023102310231023102310271
:1037C0003102310231023102310231023102310261
:1037D0003102310231023102310231023102310251
:1037E000C7013102310231023102310231023102AC
:1037F000310231023102A101AB0131023102310249
:103800003102AB0131023102310231020802C7013B
:10381000EA01310231028F013102C7013102310266
:10382000C7019DF82220022161F302028DF82220B7
:103830004EE79DF8201041F001018DF820104EE771
:10384000171E18BF01274DE79DF82230042262F3AE
:1038500002038DF82230012744E79DF8223003222D
:1038600062F302038DF822309DF8213003F07803D3
:10387000402B7FF437AF012734E79DF82230032235
:1038800062F302038DF822309DF8213013F0780F97
:103890003FF428AF012725E79DF8203043F00103CE
:1038A0008DF820301EE79DF8203043F004038DF89A
:1038B00020307F422CE79DF92030002B02DB4FF0B7
:1038C000FF3725E7099F23E79DF821306FF3410378
:1038D0008DF821304FF0FF3B29E713F0020F02D0A3
:1038E000DDF828B023E74FF0FF3B20E7CB1E042B89
:1038F00004D8DFE803F00B1D29353500039B1A1DA2
:1039000003921A68D317CDE9062306E0039B1A1D1C
:1039100003921A68D317CDE90623012928D002297A
:103920007FF41CAFBDF91820D317CDE9062315E7A6
:10393000039B073323F0070303F108020392D3E943
:103940000023CDE90623E8E7039B073323F00703B1
:1039500003F108020392D3E90023CDE90623DCE753
:10396000039B1A1D03921A68D317CDE90623D4E7E7
:103970009DF81830069300230793EFE6CB1E042B27
:1039800004D8DFE803F00B1F35414100039B1A1DEB
:1039900003921B680693002307931EE09DF82330D3
:1039A000632B07D0039B1A1D03921B680693002309
:1039B000079312E0039B1A1D03921B6806930023D2
:1039C00007930AE0039B073323F0070303F1080280
:1039D0000392D3E90023CDE9062301291CD0022953
:1039E0007FF4BCAEBDF81830069300230793B5E60C
:1039F000039B073323F0070303F108020392D3E983
:103A00000023CDE90623E8E7039B1A1D03921B68F8
:103A1000069300230793E0E79DF8183006930023F0
:103A200007939BE608290BD0039B073323F007037A
:103A300003F108020392D3E90023CDE906238DE6C2
:103A4000039B073323F0070303F108020392D3E932
:103A50000023CDE9062381E6039B1A1D03921B6810
:103A600006937BE6434652462946304610F034FC26
:103A70000028C0F24F810444C2466FE42946252045
:103A8000B0470028C0F246810134DDF808900DF1FE
:103A9000460B4FF0000AA7E0DDF818A0BBF1000FBD
:103AA00008DB5946504615F0CAF80AEB000BDDF862
:103AB000089099E05046FDF72DFDF6E7069B8DF83E
:103AC0003030DDF808900DF1310B0DF1300A8BE04C
:103AD00019F0080F05D119F0100904D04FF0200992
:103AE00001E04FF02B09DDE90623002A73F1000104
:103AF00002DBCDE9062309E0524263EB4303CDE943
:103B000006234FF02D0901E0DDF808900DF1460382
:103B100000930CAB08AADDE90601FFF7A7FB82467C
:103B2000BBF1000FC0F290800DF14603A3EB0A0336
:103B30009DF820206FF386128DF820209B4540F2DF
:103B40008680ABEB030309930DF1460B4CE006981E
:103B500030B9DDF80890DFF8C4B1ABF1050A43E0F5
:103B60000DF1460300930CAB08AA0021FFF77EFB82
:103B700082469DF8223043F010038DF822307823DE
:103B80008DF82330DDF80890CAE7069A9DF82130B9
:103B9000C3F3C303072B06D8DFE803F0040C0E10B1
:103BA00012171C1E1460DDF808900DF1460B4FF043
:103BB000000A19E01470F6E71480F4E71460F2E7E5
:103BC0002046E117C2E90001EDE72046E117C2E90E
:103BD0000001E8E71460E6E71460E4E7DDF8089028
:103BE0000DF1460B4FF0000ABAF1000F00F08E8085
:103BF000ABEB0A02B9F1000F00D001329DF82210A0
:103C000011F0100F26D00232099B134411F0400F1F
:103C100001D00A9A1344002F32DDFF1A9DF820309C
:103C200013F0040F2CD113F0400F18D0B9F1000F8E
:103C300018D029464846B04700286BDB0134DDF830
:103C40000890302302930FE00DF1460BCCE70DF105
:103C5000460BC9E711F0080FD6D00132D4E7202374
:103C6000029301E0302302933B465F1E002B07DDE9
:103C700029460298B04700284CDB01343B46F4E764
:103C8000B9F1000F05D029464846B047002841DB6E
:103C900001349DF82230C3F30012C3F3C003134371
:103CA00005D029463020B047002833DB01349DF889
:103CB000223013F0100F06D029469DF82300B0479C
:103CC000002827DB0134099B03F1FF39002B07DDB6
:103CD00029463020B04700281CDB01344B46F3E76F
:103CE0005B4652462946304610F0F6FA002811DBB2
:103CF0000444002F07DD29462020B047002809DBB7
:103D00000134013FF5E7C246FFF728BBC246FFF783
:103D100025BB204613B0BDE8F08F00BF792003001B
:103D200008B504464FF02002EFF3118382F31288A6
:103D3000BFF36F8F11F001F9204600F00DFE03482C
:103D400010F05BF800F002FAFCE700BF7C200300F3
:103D5000C1B108B502460846116000235361936162
:103D600053639363D3879387D38393834FF0FF3356
:103D7000136213648B6843B19B6C43B10549984748
:103D8000002008BD6FF0120070470020F9E7002006
:103D9000F7E700BFED44010000B583B001220DF14B
:103DA0000701054810F0E8FB002801DB9DF807003B
:103DB00003B05DF804FB00BF2C53012038B5104858
:103DC00014F013FBB0B10E490E48FFF7C1FF0446D3
:103DD00070B90B4B9B689B6C7BB10A4D10220A4952
:103DE000284610F00AFC10220849284610F0EAFB89
:103DF000204638BD6FF01204FAE76FF08504F7E74C
:103E0000749501002C530120705301201C53012094
:103E100010B5044C044B9C4203D254F8043B984721
:103E2000F8E710BD5C9701005C970100064B1B682A
:103E30004BB110B55C1E044A52F823309847234614
:103E4000002CF7D110BD7047549701001B4B1B6825
:103E5000002B32D130B585B0184B01221A60184BB7
:103E600093E8070004AB03E90700164B63B110F0B9
:103E7000EBFC4FF02003EFF3118583F31288BFF3BF
:103E80006F8F114B1C680AE0002383F31188BFF386
:103E90006F8FEEE723460CB1236843B11C4634B163
:103EA000A368002BF6D0064A10789847F2E785F30E
:103EB0001188BFF36F8F05B030BD7047040000203C
:103EC0008C530120494801008453012070B588B00B
:103ED00006462A4C6D460146284610F0AAFB95E896
:103EE000070084E807002078002845D0244B0022F2
:103EF0001A60B6F1FF3F0CD10DF0A8FB4FF0200384
:103F0000EFF3118583F31288BFF36F8F1D4B1C688D
:103F100016E0A368590CD8031B4C1C4A0023001957
:103F20004FF0000444EB0101FDF702F90121301AC2
:103F300014F07CFCE0E723460CB1236843B11C4637
:103F400034B16368002BF6D00C4A10789847F2E73A
:103F500085F31188BFF36F8F084B93E8070008AB18
:103F600003E907000A4B0BB110F05BFCFFF76EFF93
:103F70000DF06AFD014B187808B070BD8C5301201C
:103F800004000020845301203F420F0040420F00F4
:103F90002348010008B502480EF0C2F808BD00BF72
:103FA000A8200300D0B108B54268042A05D0D2B1D8
:103FB00000680DF03BFA002008BD03680022BFF343
:103FC0005B8F53E8001F012903D143E8002000283C
:103FD000F7D1BFF35B8F04D11046EDE76FF4E040FB
:103FE00070470248E8E70248E6E700BFE98FFFFFB5
:103FF000EA8FFFFF20B308B54268042A02D092B9C5
:1040000011480FE003680122BFF35B8F53E8001FE4
:10401000002903D143E800200028F7D1BFF35B8FCC
:104020000CD1002008BD00684FF0FF324FF0FF3385
:104030000DF072F90028F5D00448F3E70348F1E7E2
:104040006FF4E040704700BFEA8FFFFFE98FFFFF8A
:1040500010B5044690B16368042B0ED0082B0CD029
:104060005BB113F0020F0ED1236800221A605A6070
:104070009A60DA601A610023636010BD054B5B68CB
:1040800005489847E7E72146044814F0FBF9002368
:104090002360F0E798000020B0200300985301202F
:1040A00010B5044678B16368042B0BD0082B09D0F7
:1040B0000BB9236863B1206814F05FFA636843F0BA
:1040C0000103636010BD104B5B6810489847EAE736
:1040D0004FF0FF324FF0FF3321460D480CF0F4FF54
:1040E00008B923681BB9084B5B680A4898472368DE
:1040F00000221A605A609A60DA601A61636843F0BD
:1041000002036360D7E700BF98000020B0200300DF
:1041100098530120D820030008B5402314220449F5
:10412000044814F0A0F9044904480EF05BF808BDF7
:10413000B8530120985301201821030008210300DF
:10414000014910220A60704710ED00E072B640404D
:1041500080F31188BFF36F8FBFF34F8F30BF62B60C
:10416000BFF36F8F704700BF72B6494081F311886B
:1041700020BF80F3118862B6704700BF43B2002BA6
:1041800008DB00F01F005B09012202FA00F0024A7E
:1041900042F82300704700BF00E100E04209054BF0
:1041A00053F8222000F01F00012303FA00F0104012
:1041B000704700BF00E100E0013143B2002B08DB93
:1041C0004901C9B203F1604303F5614383F8001369
:1041D000704700F00F004901C9B2014B19547047F4
:1041E00014ED00E030BFFFF7FDBF00BF08B50B4B7B
:1041F0000B4A22F07F029A60BFF34F8FBFF36F8F9D
:10420000D3F8882022F47002C3F888200CF0FCFE5A
:104210000DF08AFD00F018FA0CF002FF00ED00E04E
:10422000000000000A4A9368C3F8A8000949096819
:10423000C3F8AC1008494B6843F080534B6000232F
:1042400083F31188BFF36F8F9368D3F8AC00704786
:10425000E45E0120F44D030000ED00E013498A689C
:104260004FF030001044EFF3098C80E8F01F20205D
:1042700080F31288BFF36F8F0D4F4FF00066CA694D
:104280008A603E60D2F8A8000023C2F8A83080F30C
:10429000118804B5104600F079FABDE8044002F137
:1042A000300090E8F01F8CF309887047E45E01202D
:1042B00004ED00E01EF0040F0CBFEFF30880EFF3F5
:1042C0000980816911F8021C0229FFD001B510F0A4
:1042D000BDF901BD10B4A2F120040D4921F0010186
:1042E00042F8081C42F8203C019B42F81C3C029B0F
:1042F00042F8183C039B42F8143C4FF0807342F89C
:10430000043C04650023C0F8A83010BC704700BF0F
:10431000D9400100164B9A68DAB110F1160F1AD085
:1043200010B4D2F89830A3F12004844205D8834217
:1043300008D98B4208D8002100E0002131B90020C3
:1043400010BC70470021F9E70121F7E7D2F8980087
:10435000F6E700207047D2F898308B4294BF0021D6
:10436000012109B900207047D2F89800704700BFBA
:10437000E45E012008B50D461446084B986000F035
:1043800005FA204685F30988002163B681F3118878
:10439000BFF36F8F002200230FF09EFEE45E01202A
:1043A00001B572B60B4A906900281EBF00219161C9
:1043B00014F0BBF862B6EFF30580A0F110004FEAED
:1043C000C0000549014409C99847BDE801400349B7
:1043D00008470000E45E0120D4950100E14300009D
:1043E000044B9968D869884203D003494FF0805242
:1043F0000A607047E45E012004ED00E010B5144649
:10440000124B9A6A9A6A9B6A13F4007F0BD00F4B87
:104410009A6B9B6A13F4004F05D021B10B4A936A43
:1044200023F400439362094B9A6A9B6A13F4807FDA
:1044300001D1064B9B6A054A936A43F47F4393621A
:10444000012110F01CF92070002010BD00ED00E0EB
:10445000074B9A6A9A6A9A6A9A6A9A6A9A6A9A6AEE
:104460006FEA02426FEA12429A620020704700BF70
:1044700000ED00E070B505461646204B9A6A9A6A30
:104480009B6A13F0020F0CD01C4B586B9B6A13F005
:10449000800F25D039B1194A936A23F080039362C3
:1044A00001E06FF01500154B9A6A9A6A9B6A13F047
:1044B000100F04D1114B9C6A14F0020404D00F4B6E
:1044C0005C6814F400640ED10C4A936A43F0FF0355
:1044D00093620121284610F0D2F83070204670BD5A
:1044E0006FF01500DFE72946FFF714FF04460028A8
:1044F000EAD080F309880224E6E700BF00ED00E07F
:1045000010B5044600230B701B4BD86A10F0020054
:104510002DD1DB6A002B2BDB174BDB6A13F08043BA
:1045200027D0A36933F8022C4DF602739A4210D0BB
:1045300003F1604303F626631B7863B90F4B1B78C6
:104540007BB90F4B1B889BB293B12046FFF780FFCE
:104550000EE020680CE00A4601212046FFF78AFFA2
:1045600006E00A4601212046FFF748FF00E0002050
:1045700010BD1846FCE700BF00ED00E029ED00E0AB
:104580002AED00E0F0B58BB00C46254B5968C1F31D
:104590000801002383F31188BFF36F8F02F07F437C
:1045A000B3F17F4F15D102F00C03082B14D012F099
:1045B000080F0BD000270DF12702204610F064F8F9
:1045C00006469DF8273053B10BB0F0BD04460127D5
:1045D000F1E700273C46EEE700273C46EBE701AD5C
:1045E00020686168A268E3680FC520696169A269F3
:1045F000E3690FC54FB1089BC3F308025AB96FEACC
:1046000053236FEA4323089305E0089B23F4FF73C9
:1046100023F00103089301A9304610F013F8D3E703
:1046200000ED00E0024A536943F010035361704704
:1046300000ED00E0EFF30880EFF3098101B5724669
:10464000FFF7A0FF01BD00BF002206E002F00F014E
:10465000094B0B442021197601322F2A0ADC53B270
:10466000002BF3DB03F1604303F56143202183F862
:104670000013F1E7704700BFFCEC00E0002080F37E
:104680001488BFF36F8F14F01FFF00200D490860DE
:10469000BFF34F8F0C4880F3088800F029F82020E2
:1046A00080F3118809484FF40261401880F30988AB
:1046B000EFF314800221084380F31488BFF36F8F57
:1046C000FFF794FD94ED00E020E10120A0E201203D
:1046D000064B1868C0F307200023834205DA034A1B
:1046E0009360002111610133F7E7704790ED00E01E
:1046F00010B572B6002484F31388FFF7E9FF234650
:1047000008E003F120010E4A4FF0FF3042F821008B
:104710000133DBB2072BF4D9002308E003F1600179
:10472000074A4FF0FF3042F821000133DBB2072B7C
:10473000F4D962B6BFF34F8FBFF36F8F10BD00BFC8
:1047400000E100E008B5084B9B68834202D00DF001
:10475000C3FA08BDEFF30583002BF8D0034A536872
:1047600043F080535360F2E7E45E012000ED00E087
:1047700008B5034B034A0121034810F00BF808BDAC
:1047800000000420000000202C21030008B5D0F810
:104790009830203B0448036020234360034B836030
:1047A00001210FF0FBFF08BDB858012000000B15D8
:1047B000064A90600B6823F01F03034343F0100385
:1047C000D3608B6843F001031361704790ED00E004
:1047D00010B5034C012322780FF0B4FF207010BDF8
:1047E000515F012008B50023084A12780FF0AAFF94
:1047F00010F1160F08D00346072B05DC044A93601E
:10480000002111610133F7E708BD00BF515F0120AE
:1048100090ED00E0034B05225A60BFF34F8FBFF3CA
:104820006F8F704790ED00E0BFF35F8F014B002268
:104830005A60704790ED00E038B50E4B1D68082DAA
:1048400015D8FFF7F1FF0024A5420AD9094B596892
:1048500004EB4402930019442046FFF7A9FF0134FA
:10486000F2E7054B1D70FFF7D5FF002038BD4FF074
:10487000FF30FBE750210300515F0120014B18601E
:10488000704700BF2C00002070B506460D4600247E
:1048900000E00134AC4208DA054B1B6898473055FC
:1048A0000A2801D00D28F4D10134204670BD00BF84
:1048B00028000020F8B505460F46002404E0094B07
:1048C0001B68307898470134BC4208DA2E192B5DFA
:1048D0000A2BF4D1034B1B680D209847EFE73846AD
:1048E000F8BD00BF2C00002008B5052202490120B8
:1048F0000FF065FFFEE700BF382103000246084BBA
:104900001968084BC8180A44C3F1005303F5802303
:104910009A4202D2024B1A6070474FF0FF30704744
:10492000C4580120C0EA01204FF02003EFF31182A8
:1049300083F31288BFF36F8F01230649C1F8403516
:104940004FF08041C1F8783582F31188BFF36F8F43
:104950000020704700E00140C0B24FF08043C3F830
:104960001C05BFF34F8F0549CA6802F4E062044B8F
:104970001343CB60BFF34F8F00BFFDE700ED00E0B6
:104980000400FA0530B108B58001034B43F0010380
:10499000984708BD704700BFC098010000487047A5
:1049A00020590120014BC01A40117047D8580120EE
:1049B00038B505460C46FFF7F5FF0146402203488F
:1049C0000FF0C2FF01462846A04738BD44950100BC
:1049D00030B583B005460C46FFF7E4FF014640239F
:1049E00000932346054A06480FF0C8FF011E01DB6D
:1049F00003B030BD2846A047FAE700BFC549010013
:104A00004495010008B510B101280DD008BD002162
:104A100008480FF024FF836813F0070FF6D1002138
:104A200004480FF07FFFF1E7012102480FF07AFF01
:104A3000ECE700BF4495010010B54FF02003EFF301
:104A4000118483F31288BFF36F8F134A136843F006
:104A50000203136013F0010F08D1002384F31188BF
:104A6000BFF36F8F9BB90FF0B5FF10BD4FF08043C0
:104A7000D3F80C24D3F80C3412F0010F01D1002329
:104A8000ECE7FFF78BFF0FF03AFF0123E6E7002189
:104A900002480FF047FFE8E7305901204495010034
:104AA00008B50A4BBFF35B8F53E8002F22F00201D9
:104AB00043E800100028F7D1BFF35B8F12F0010F1D
:104AC00000D008BD0FF090FFFBE700BF3059012078
:104AD00000B585B0CDF800D0CDF804D00023029306
:104AE000012303936B46074A0FF064FF002805DBA0
:104AF0004FF48042002368460CF000FD05B05DF8DD
:104B000004FB00BFFD49010070B5064600220121EB
:104B10001046FFF751FB0020FFF730FB114801F072
:104B200069F9114B98421AD110F096FA002403E06B
:104B30000123AB601C44E4B2012C0ED82146304660
:104B40000FF08DFE0546214630460FF093FE0749D3
:104B50000FF04AFA0028EBDA00E0002070BD6FF099
:104B60000400FBE7054A00000000AD0B9C21030098
:104B700070B50546012807D14FF08043D3F81C34A7
:104B800003F00303012B58D013F0BAFC28B92E4BC5
:104B90001B78002B41D0002300E001231C46002B92
:104BA0003DD04FF02003EFF3118683F31288BFF35B
:104BB0006F8F24B94FF080430222C3F808234FF0CF
:104BC0008042D2F8183403F00303D2F8182412F408
:104BD000803F2BD100221AB1012B29D0012D27D0E3
:104BE000FCB13046FFF7C0FA4FF08043D3F81835D8
:104BF000002BE4D1154B1B68002BE0D0134B002297
:104C00001A601B6801234FF08042C2F81835104A21
:104C1000C2F880310F4A1360D1E70123BEE70026B6
:104C2000C7E7212000210DF025F8DDE70122D2E7BA
:104C300024B186F31188BFF36F8F70BD4FF08043AE
:104C40000222C3F80423F8E7535F01200401004067
:104C500000E100E00800004010B50446104B0121BF
:104C6000BFF35B8F53E8002F43E800100028F9D111
:104C7000BFF35B8F1AB1631E012B0CD910BD09481D
:104C80000FF0F8FD084900234B60CB6001238B60D7
:104C90000FF0C6F9EFE72046FFF76AFFEEE700BF27
:104CA0003459012044950100C858012038B5044604
:104CB000C5B20B4B1B6828469847012807D00A2C21
:104CC00007D0084B186883685B68294698472046D8
:104CD00038BD044B186883685B680D219847F0E77E
:104CE000300000203859012010B5044C2046FFF751
:104CF000C5FD2046FEF7CCF910BD00BFAD4C00004D
:104D000008B50648064B186013F06FFB18B1FFF7A3
:104D1000EBFF002008BD6FF01200FBE77495010067
:104D200038590120F0B443685F68374B1340374C63
:104D3000A34227D012D8062B26D004D9B3F5801F62
:104D400009D1012416E00BB3022B01D1042411E098
:104D50006FF0150046E06FF0150043E02C4CA342C5
:104D600016D0B3F5A00F01D1032403E0B3F5800FF3
:104D700046D1022412F0100F0CD112F0200F33D0C4
:104D8000012508E00724F5E70624F3E70024F1E70E
:104D90000524EFE70325C2F3402312F4807F0CBF04
:104DA0000126002612F4007F06D012F4006F1DD0F9
:104DB00001228A40C7F808254268127A01F01F01D3
:104DC00041EA42125209012A18D04FF0A04243EAA8
:104DD000460343EA850343EA042301F5E07142F800
:104DE00021300020F0BC70470025D4E712F4806F1A
:104DF000E2D001228A40C7F80C25DDE7054AE6E744
:104E00006FF01500EEE700BF0600F000060010008E
:104E10000200400000030050F0B405694668E968EC
:104E20006A69AB69134321EA03010123002011E001
:104E30004FF0020C1DE0144F04F5E07457F82420E5
:104E400022F4403242EA0C4247F8242021EA0301CE
:104E500001305B00A9B10B42FAD0347A00F01F0296
:104E600042EA44122C69C44014F0010FE0D14FF023
:104E7000030C02F01F045209012ADCD04FF0A047B6
:104E8000DAE7F0BC704700BF00030050F0B58C4675
:104E900003694168DF685A699869024327EA020793
:104EA0004A68D2F810251869504027EA00003C46AD
:104EB0000123002515E0DFF874E025E002F01F066D
:104EC0005209012A2ED04FF0A04E06F5E0725EF88E
:104ED000226026F440364EF8226024EA03040135AD
:104EE0005B0014B32342FAD00E7A05F01F0242EAA7
:104EF00046123B42E2D102F01F064FEA521EBEF1BB
:104F0000010FD8D04FF0A04E06F5E0765EF826608F
:104F1000C6F30146022ED1D1DCF800601E43CCF866
:104F20000060CBE7DFF804E0CFE7F0BD00030050FE
:104F300010B5144BD3F80443E4B2002300E001336E
:104F4000072B1DD803F5A2720E4951F82220C2F397
:104F500005229042F3D124FA03F212F0010FEED0B1
:104F60000A4603F5A27051F8201021F0010142F821
:104F7000201001219940C2F80813D8B201F072F84C
:104F800010BD00BF0060004070B582B004460D4601
:104F90000DF1070001F082F81C4B984232D19DF8C8
:104FA000073003F140029200194E03F5A27356F840
:104FB000231021F44F3121F4407146F8231056F8A4
:104FC0002310240204F47C542D0405F440352C43B2
:104FD0000C4346F8234002F1804303F5C043002010
:104FE00018601B689DF8071001F5A27356F823207E
:104FF00042F0010246F8232001238B40C6F8043317
:1050000002B070BD6FF01200FAE700BF0000AD0BF8
:105010000060004070B50D46066943681B7A01F0D8
:105020001F0444EA43142046FFF782FF04F01F00E8
:105030006309012B20D04FF0A04200F5E07152F837
:10504000213023F4403342F82130F368EB4013F071
:10505000010F2FD07369EB4013F0010F15D0B36926
:10506000EB4013F0010F09D1316921FA05F515F074
:10507000010F08D0012102E00F4ADEE7032120469C
:10508000FFF782FF17E00221F9E7316921FA05F500
:1050900015F0010F0CD1032100F5E07052F820301B
:1050A00023F4403343EA014342F82030002002E079
:1050B0000221F1E7002070BD00030050F8B504693B
:1050C00045682E7A01F01F0545EA4615B2F5A03F66
:1050D00025D0B2F5005F35D0E56801268E40354316
:1050E000E560B2F5A03F33D0626901258D4022EA28
:1050F00005026261B3F5C02F2FD0A26901258D4052
:1051000022EA0502A261B3F5802F2BD02369012288
:105110008A4023EA02032361FFF77CFFF8BD05F014
:105120001F066D09012D0BD04FF0A04706F5E07565
:1051300057F8255015F0010FCBD06FF08500EDE743
:105140000B4FF3E7E56801268E4025EA0605C7E721
:10515000626901258D402A43CBE7A26901258D4074
:105160002A43CFE7236901228A401343D3E700BFD4
:105170000003005008B50B4B1B780BB1002008BD95
:10518000084B01221A70002205210620FFF714F8AF
:105190000620FEF7F3FF044B4FF00042C3F8042350
:1051A000ECE700BF525F01200060004070B584B0A2
:1051B00000230293039300930193464B1C680CB9A0
:1051C000002111E0444D69462846FFF75FFE02903A
:1051D00001A905F11800FFF759FE03903D4B00228D
:1051E0001A601B68ECE7013107292DD801F1400353
:1051F0009B009AB201238B403848D0F80403034245
:10520000F1D002F1804303F5C0431B68002BEAD0C4
:1052100001F5A273314850F82300C0F34033C0F3C6
:105220000420012505FA00F004AD05EB830353F8D3
:10523000085C054343F8085C02F1804303F5C04372
:1052400000221A601B68CEE7029E2EB9039EEEB9BB
:10525000002C35D104B070BD214B596819B10D46F1
:1052600049B10D6807E00D4605E06DB12B4605B16B
:105270002B6829461D460029E8D08A683240F4D0C0
:105280004B6815489847F0E72B46F2E7154B5968ED
:1052900019B10D4649B10D6807E00D4605E06DB145
:1052A0002B4605B12B6829461D460029D0D08A68B7
:1052B0003240F4D04B680C489847F0E72B46F2E7B1
:1052C000054C2046FFF7A8FD04F11800FFF7A4FDE8
:1052D000C0E700BF7C610040A49501000060004071
:1052E0003C59012058590120BC95010043681A68B7
:1052F000B1F5164F6FD03AD8B1F5165F6ED00AD916
:10530000B1F5E14F75D024D947F6122399422BD13C
:105310004FF4000313E0B1F5966F61D007D9B1F5F2
:10532000166F63D0B1F5965F10D13C4B07E0B1F535
:10533000967F58D0B1F5167F05D14FF41C33C2F8D3
:105340002435002070476FF0150070476FF015008E
:105350007047B1F5615F4ED0B1F5964F01D1304B3A
:10536000EDE76FF0150070476FF015007047B1F56D
:10537000613F42D009D9B1F5612F46D01FD9294BE1
:10538000994248D14FF08053D9E7B1F5963F37D0D5
:1053900005D9B1F5E13F0FD14FF0EB73CFE74DF6F3
:1053A000C02399422ED0B1F5614F02D14FF46B0367
:1053B000C5E76FF0150070476FF0150070471A4B86
:1053C000994225D0B1F5E12F02D14FF0E863B6E75D
:1053D0006FF0150070474FF41D03B0E7134BAEE7B5
:1053E0004FF49E23ABE74FF4A033A8E74FF41D23FF
:1053F000A5E70F4BA3E70F4BA1E74FF06C739EE7B8
:105400000D4B9CE74FF4650399E74FF0706396E707
:105410004FF0806393E76FF01500704700B0130002
:1054200000A04E0040420F0090D003000050270023
:1054300000C0750000F03A0000903A012DE9F041FB
:1054400005460F46D0F8108013F05AF820B9164BD5
:105450001B78ABB1002300E001239BB14FF0200388
:10546000EFF3118483F31288BFF36F8F264628462B
:105470000FF0FBFB50B984F31188BFF36F8FEDE79A
:105480000123EAE728460FF011FD0646414601F8E0
:10549000147F012228460FF002FC86F31188BFF327
:1054A0006F8FBDE8F08100BF535F012038B504461F
:1054B0000D4601F1160000F03FFE0C4B984211D151
:1054C000AB7D04F590710C34094AA23342F83310D5
:1054D00002EBC3035C60A97D01238B40C2F8043555
:1054E000002038BD6FF00400FBE700BF0000AD0BEB
:1054F00000F00140F8B54468256806690023C5F846
:1055000000353060A36803F01F015B09012B00F038
:1055100097804FF0A04201238B40C2F80835A36862
:1055200003F01F025B09012B00F08C804FF0A041BB
:1055300002F5E073032241F82320E368B3F1FF3F53
:105540000CD0217E03F01F025B09012B7CD04FF0B1
:10555000A047890002F5E07347F82310A268E368CA
:10556000C5F80C25C5F814352369B3F1FF3F0CD0FD
:10557000617E03F01F025B09012B67D04FF0A0474B
:10558000890002F5E07347F823106369B3F1FF3F28
:1055900017D003F01F025B09012B59D04FF0A04137
:1055A00001239340C1F80835636903F01F025B09CA
:1055B000012B4FD04FF0A04102F5E073032241F8D8
:1055C000232062692369C5F80825C5F810350169EB
:1055D00004310FF0DDFA074680BB636813F0080F53
:1055E0003AD10823C5F80035E368B3F1FF3F0CD08A
:1055F0000023C5F81031D5F8103106F11503C5F8B0
:1056000034350123C5F838352B60636813F0080F73
:1056100003D14FF48073C5F80433636813F0100F9F
:1056200003D04FF48003C5F804331436C5F844653D
:105630000023C5F848350123AB60EB603846F8BD60
:10564000094A68E7084973E7074F82E7064F97E77B
:105650000549A5E70449AFE731462846FFF726FF8D
:105660000028BEDA0746E9E70003005021F07F4139
:1056700000F5A870014B43F820107047001001405E
:1056800000F5A870014B53F820007047001001404E
:105690004FF480338340024AC2F84433704700BF5E
:1056A000001001404FF480338340024AC2F848336F
:1056B000704700BF00100140014BD3F8040570474C
:1056C0000010014010B501238340DC43104ABFF3B2
:1056D0005B8F52E8001F01EA040C42E800CEBEF1E5
:1056E000000FF6D1BFF35B8F4FF4803202FA00F067
:1056F00002F1804202F58052C2F80803BFF35F8FC7
:10570000BFF36F8F0B4214BF0120002010BD00BFFC
:10571000B859012070B504460FF023FC05464FF43C
:105720008033A340174AD2F80423134205D1002640
:1057300028460FF01FFC304670BD0123A340DB4319
:10574000114ABFF35B8F52E8001F01EA030042E8F1
:105750000006002EF7D1BFF35B8F59B904F1500357
:105760009B009BB203F1804303F588331B6813B1A0
:10577000012300E001231E46002BD9D020460FF064
:10578000E1FBD5E700100140B459012001B9704791
:1057900001238340114ABFF35B8F52E8001F194376
:1057A00042E8001CBCF1000FF7D1BFF35B8F4FF450
:1057B000803383400A4AC2F80433BFF35B8F094B3E
:1057C0001B68BFF35B8F23FA00F010F0010FDED0EF
:1057D000054B4FF40032C3F80021D8E7B859012037
:1057E00000100140B459012000E100E0F8B507467F
:1057F00014461E46104619460FF0B0FB0546154BE1
:105800001A68A01A1C605E60A5F50013B3F5400F7E
:1058100008D300240CF094FB3846FFF731FFA84270
:105820000CD0F8BD0C4B19680B0A0A06521943F14B
:1058300000030A49C1E900230124EBE71CB1384603
:10584000FFF726FFEDE74FF400013846FFF70EFFA4
:10585000F5E700BF88030020BC5901207003002039
:1058600038B50D4B1B681D0A1C06BFF35F8FFFF791
:1058700023FF0346201845F10001B3F5801F0AD22B
:10588000064BD3E90023994208BF904203D210F19E
:10589000807041F1000138BDBC5901207003002027
:1058A0002DE9F843064614461D46104619460FF0EA
:1058B00055FB0746FFF7D4FFA94208BFA0421ED2FE
:1058C000B4EB000865EB01094FF0807200234B45F3
:1058D00008BF42452ED3194B03EB0613D3E902232D
:1058E000AB4208BFA24218D0394630460FF047FB02
:1058F00039460FF023FB241845F100050DE0012384
:10590000B3400F4ABFF35B8F52E8001F194342E8D0
:1059100000100028F8D1BFF35B8F084B320103EB76
:105920000616C6E9024508999950099B7360002044
:10593000BDE8F8836FF01500FAE700BF7803002098
:10594000B45901202DE9F04782B00446FFF7E2FE8A
:1059500010B902B0BDE8F087FFF782FF06460F4698
:105960000FF0FFFA8246134B03EB0413D3E90289CD
:105970004F4508BF46450BD2002650460FF0FAFAB5
:10598000002EE6D0009542464B462046B047E0E761
:10599000084A230102EB0411D6584D680020D0506C
:1059A0004FF0FF324FF0FF33C1E902232046FFF7EB
:1059B00079FEE2E77803002010B50D4BD3F80433ED
:1059C00013F0020F0AD00B4B1B683BB1094B0022AE
:1059D0001A601B68084A1368013313600024002C06
:1059E00000DD10BD2046FFF7ADFF0134F7E700BF33
:1059F0000010014004110140BC59012030B583B0B2
:105A000000231F4AC2F80835002B27DD1C4C022555
:105A1000C4F804531B4B4FF40032C3F8802100221A
:105A200001211120FEF7C8FB1120FEF7A7FBC4F8E7
:105A300004530123144A13602360144A13600024A2
:105A40000194134B0093134A002320460FF0D2FA1F
:105A50002846FFF701F9204603B030BD0E4A02EB9D
:105A600003124FF0FF304FF0FF31C2E902014FF453
:105A700080329A400249C1F804230133C4E700BFD1
:105A80000010014000E100E008100140B859012079
:105A9000ED570000FFFF7F007803002010B582B0B3
:105AA000B0F1FF3F07D0441E002C07DD114B9C4294
:105AB00005DD114C03E000F50000F4E70024FFF7DA
:105AC000CFFE0E4BD3E90023801AB0F5000F00D3B0
:105AD000002404440134B4F5000F00D3064C002028
