:1000000070740120A94600009B4801006146000071
:100010006146000061460000614600006146000044
:10002000000000000000000000000000614300002C
:100030006146000000000000054300000B51010074
:10004000ED430000ED430000ED430000ED430000F0
:10005000ED430000ED430000ED430000ED430000E0
:10006000ED430000ED430000ED430000ED430000D0
:10007000ED430000ED430000ED430000ED430000C0
:10008000ED430000ED430000ED430000ED430000B0
:10009000ED430000ED430000ED430000ED430000A0
:1000A000ED430000ED430000ED430000ED43000090
:1000B000ED430000ED430000ED430000ED43000080
:1000C000ED430000ED430000ED430000ED43000070
:1000D000ED430000ED430000ED430000ED43000060
:1000E000ED430000ED430000ED430000ED43000050
:1000F000ED430000ED430000ED430000ED43000040
:10010000ED430000ED430000ED430000ED4300002F
:10011000ED430000ED430000ED430000ED4300001F
:10012000ED430000ED430000ED430000ED4300000F
:10013000ED430000ED430000ED430000ED430000FF
:10014000ED430000ED430000ED430000ED430000EF
:04015000ED4300007B
:04015400FFFFFFFFAB
:1001580081F0004102E000BF83F0004330B54FEA70
:1001680041044FEA430594EA050F08BF90EA020FDD
:100178001FBF54EA000C55EA020C7FEA645C7FEA70
:10018800655C00F0E2804FEA5454D4EB5555B8BF93
:100198006D420CDD2C4480EA020281EA030382EA04
:1001A800000083EA010180EA020281EA0303362D96
:1001B80088BF30BD11F0004F4FEA01314FF4801C69
:1001C8004CEA113102D0404261EB410113F0004F7B
:1001D8004FEA03334CEA133302D0524263EB430332
:1001E80094EA050F00F0A780A4F10104D5F1200ED0
:1001F8000DDB02FA0EFC22FA05F2801841F100012B
:1002080003FA0EF2801843FA05F359410EE0A5F1FE
:1002180020050EF1200E012A03FA0EFC28BF4CF02F
:10022800020C43FA05F3C01851EBE37101F00045E5
:1002380007D54FF0000EDCF1000C7EEB00006EEBF2
:100248000101B1F5801F1BD3B1F5001F0CD349087C
:100258005FEA30004FEA3C0C04F101044FEA4452D3
:1002680012F5800F80F09A80BCF1004F08BF5FEA5A
:10027800500C50F1000041EB045141EA050130BD3A
:100288005FEA4C0C404141EB0101013C28BFB1F54C
:10029800801FE9D291F0000F04BF01460020B1FA97
:1002A80081F308BF2033A3F10B03B3F120020CDA6A
:1002B8000C3208DD02F1140CC2F10C0201FA0CF048
:1002C80021FA02F10CE002F11402D8BFC2F1200CAD
:1002D80001FA02F120FA0CFCDCBF41EA0C01904063
:1002E800E41AA2BF01EB0451294330BD6FEA0404AC
:1002F8001F3C1CDA0C340EDC04F11404C4F1200297
:1003080020FA04F001FA02F340EA030021FA04F3A8
:1003180045EA030130BDC4F10C04C4F1200220FAFF
:1003280002F001FA04F340EA0300294630BD21FA3D
:1003380004F0294630BD94F0000F83F4801306BF03
:1003480081F480110134013D4EE77FEA645C18BFF7
:100358007FEA655C29D094EA050F08BF90EA020F8E
:1003680005D054EA000C04BF1946104630BD91EA86
:10037800030F1EBF0021002030BD5FEA545C05D189
:100388004000494128BF41F0004130BD14F58004C8
:100398003CBF01F5801130BD01F0004545F0FE413C
:1003A80041F470014FF0000030BD7FEA645C1ABF71
:1003B800194610467FEA655C1CBF0B46024650EAA8
:1003C800013406BF52EA033591EA030F41F40021D4
:1003D80030BD00BF90F0000F04BF0021704730B55A
:1003E8004FF4806404F132044FF000054FF000012F
:1003F80050E700BF90F0000F04BF0021704730B5F0
:100408004FF4806404F1320410F0004548BF4042C4
:100418004FF000013EE700BF42004FEAE2014FEA19
:1004280031014FEA02701FBF12F07F4393F07F4FF4
:1004380081F06051704732F07F4208BF704793F0F7
:100448007F4F04BF41F40021704730B54FF460740A
:1004580001F0004521F000411CE700BF50EA01020D
:1004680008BF704730B54FF000050AE050EA0102B6
:1004780008BF704730B511F0004502D5404261EB26
:1004880041014FF4806404F132045FEA915C3FF467
:10049800D8AE4FF003025FEADC0C18BF03325FEA04
:1004A800DC0C18BF033202EBDC02C2F1200300FAB5
:1004B80003FC20FA02F001FA03FE40EA0E0021FADA
:1004C80002F11444BDE600BF70B54FF0FF0C4CF4C8
:1004D800E06C1CEA11541DBF1CEA135594EA0C0F7A
:1004E80095EA0C0F00F0DEF82C4481EA030621EAB5
:1004F8004C5123EA4C5350EA013518BF52EA0335F0
:1005080041F4801143F4801338D0A0FB02CE4FF0A1
:100518000005E1FB02E506F00042E0FB03E54FF0D1
:100528000006E1FB03569CF0000F18BF4EF0010EC9
:10053800A4F1FF04B6F5007F64F5407404D25FEAC5
:100548004E0E6D4146EB060642EAC62141EA555178
:100558004FEAC52040EA5E504FEACE2EB4F1FD0CBA
:1005680088BFBCF5E06F1ED8BEF1004F08BF5FEA38
:10057800500E50F1000041EB045170BD06F00046EA
:1005880046EA010140EA020081EA0301B4EB5C0497
:10059800C2BFD4EB0C0541EA045170BD41F480118F
:1005A8004FF0000E013C00F3AB8014F1360FDEBFB4
:1005B800002001F0004170BDC4F10004203C35DA90
:1005C8000C341BDC04F11404C4F1200500FA05F313
:1005D80020FA04F001FA05F240EA020001F00042B4
:1005E80021F0004110EBD37021FA04F642EB06012A
:1005F8005EEA430E08BF20EAD37070BDC4F10C0454
:10060800C4F1200500FA04F320FA05F001FA04F217
:1006180040EA020001F0004110EBD37041F1000103
:100628005EEA430E08BF20EAD37070BDC4F120050E
:1006380000FA05F24EEA020E20FA04F301FA05F276
:1006480043EA020321FA04F001F0004121FA04F21E
:1006580020EA020000EBD3705EEA430E08BF20EAEE
:10066800D37070BD94F0000F0FD101F00046400028
:1006780041EB010111F4801F08BF013CF7D041EAAA
:10068800060195F0000F18BF704703F000465200AE
:1006980043EB030313F4801F08BF013DF7D043EA7F
:1006A8000603704794EA0C0F0CEA135518BF95EA35
:1006B8000C0F0CD050EA410618BF52EA4306D1D1BC
:1006C80081EA030101F000414FF0000070BD50EADB
:1006D800410606BF1046194652EA430619D094EA65
:1006E8000C0F02D150EA013613D195EA0C0F05D14F
:1006F80052EA03361CBF104619460AD181EA0301A3
:1007080001F0004141F0FE4141F470014FF000005A
:1007180070BD41F0FE4141F4780170BD70B54FF0F5
:10072800FF0C4CF4E06C1CEA11541DBF1CEA135575
:1007380094EA0C0F95EA0C0F00F0A7F8A4EB050457
:1007480081EA030E52EA03354FEA013100F088804E
:100758004FEA03334FF0805545EA131343EA126317
:100768004FEA022245EA111545EA10654FEA0026CC
:100778000EF000419D4208BF964244F1FD0404F585
:10078800407402D25B084FEA3202B61A65EB0305E1
:100798005B084FEA32024FF480104FF4002CB6EB9E
:1007A800020E75EB030E22BFB61A754640EA0C001E
:1007B8005B084FEA3202B6EB020E75EB030E22BF5E
:1007C800B61A754640EA5C005B084FEA3202B6EB9F
:1007D800020E75EB030E22BFB61A754640EA9C005E
:1007E8005B084FEA3202B6EB020E75EB030E22BF2E
:1007F800B61A754640EADC0055EA060E18D04FEAEC
:10080800051545EA16754FEA06164FEAC30343EA8B
:1008180052734FEAC2025FEA1C1CC0D111F4801F58
:100828000BD141EA00014FF000004FF0004CB6E751
:1008380011F4801F04BF01430020B4F1FD0C88BFF0
:10084800BCF5E06F3FF6AFAEB5EB030C04BFB6EBFB
:10085800020C5FEA500C50F1000041EB045170BDEE
:100868000EF0004E4EEA113114EB5C04C2BFD4EB1B
:100878000C0541EA045170BD41F480114FF0000E9F
:10088800013C90E645EA060E8DE60CEA135594EA1B
:100898000C0F08BF95EA0C0F3FF43BAF94EA0C0F1E
:1008A8000AD150EA01347FF434AF95EA0C0F7FF493
:1008B80025AF104619462CE795EA0C0F06D152EAE7
:1008C80003353FF4FDAE1046194622E750EA4106CB
:1008D80018BF52EA43067FF4C5AE50EA41047FF4DC
:1008E8000DAF52EA43057FF4EBAE12E74FF0FF3C41
:1008F80006E000BF4FF0010C02E000BF4FF0010C12
:100908004DF804CD4FEA410C7FEA6C5C4FEA430C8A
:1009180018BF7FEA6C5C1BD001B050EA410C0CBFD9
:1009280052EA430C91EA030F02BF90EA020F00203B
:10093800704710F1000F91EA030F58BF994208BFA2
:1009480090422CBFD8176FEAE37040F0010070475F
:100958004FEA410C7FEA6C5C02D150EA013C07D1B6
:100968004FEA430C7FEA6C5CD6D152EA033CD3D001
:100978005DF8040B704700BF8446104662468C46FB
:100988001946634600E000BF01B5FFF7B7FF00282E
:1009980048BF10F1000F01BD4DF808EDFFF7F4FF57
:1009A8000CBF012000205DF808FB00BF4DF808EDE2
:1009B800FFF7EAFF34BF012000205DF808FB00BF05
:1009C8004DF808EDFFF7E0FF94BF012000205DF827
:1009D80008FB00BF4DF808EDFFF7CEFF94BF0120DC
:1009E80000205DF808FB00BF4DF808EDFFF7C4FFD5
:1009F80034BF012000205DF808FB00BF4FEA410228
:100A080012F5001215D211D56FF47873B3EB625258
:100A180012D94FEAC12343F0004343EA505311F07F
:100A2800004F23FA02F018BF404270474FF0000011
:100A3800704750EA013005D111F0004008BF6FF04F
:100A4800004070474FF00000704700BF4FEA410276
:100A5800B2F1E04324BFB3F5001CDCF1FE5C0DD914
:100A680001F0004C4FEAC0024CEA5070B2F1004F5E
:100A780040EB830008BF20F00100704711F0804F61
:100A880021D113F13872BCBF01F00040704741F426
:100A980080114FEA5252C2F11802C2F1200C10FA2A
:100AA8000CF320FA02F018BF40F001004FEAC1230E
:100AB8004FEAD32303FA0CFC40EA0C0023FA02F3B2
:100AC8004FEA4303CCE77FEA625307D150EA013388
:100AD8001EBF4FF0FE4040F44000704701F0004058
:100AE80040F0FE4040F40000704700BF80F0004036
:100AF80002E000BF81F0004142001FBF5FEA4103EE
:100B080092EA030F7FEA226C7FEA236C6AD04FEAED
:100B18001262D2EB1363C1BFD21841404840414032
:100B2800B8BF5B42192B88BF704710F0004F40F4E4
:100B3800000020F07F4018BF404211F0004F41F400
:100B4800000121F07F4118BF494292EA030F3FD0CC
:100B5800A2F1010241FA03FC10EB0C00C3F12003DF
:100B680001FA03F100F0004302D5494260EB40006E
:100B7800B0F5000F13D3B0F1807F06D340084FEAD9
:100B8800310102F10102FE2A51D2B1F1004F40EBCE
:100B9800C25008BF20F0010040EA03007047490036
:100BA80040EB0000013A28BFB0F5000FEDD2B0FAD3
:100BB80080FCACF1080CB2EB0C0200FA0CF0AABFF6
:100BC80000EBC25052421843BCBFD0401843704794
:100BD80092F0000F81F4000106BF80F4000001329A
:100BE800013BB5E74FEA41037FEA226C18BF7FEA71
:100BF800236C21D092EA030F04D092F0000F08BFB3
:100C08000846704790EA010F1CBF0020704712F099
:100C18007F4F04D1400028BF40F00040704712F1D8
:100C280000723CBF00F50000704700F0004343F03D
:100C3800FE4040F4000070477FEA226216BF084673
:100C48007FEA23630146420206BF5FEA412390EA36
:100C5800010F40F4800070474FF0000304E000BF2C
:100C680010F0004348BF40425FEA000C08BF7047DD
:100C780043F0964301464FF000001CE050EA0102A1
:100C880008BF70474FF000030AE000BF50EA0102B6
:100C980008BF704711F0004302D5404261EB4101A3
:100CA8005FEA010C02BF84460146002043F0B643C8
:100CB80008BFA3F18053A3F50003BCFA8CF2083AED
:100CC800A3EBC25310DB01FA02FC634400FA02FCF6
:100CD800C2F12002BCF1004F20FA02F243EB0200FD
:100CE80008BF20F00100704702F1200201FA02FC5F
:100CF800C2F1200250EA4C0021FA02F243EB020052
:100D080008BF20EADC7070474FF0FF0C1CEAD05295
:100D18001EBF1CEAD15392EA0C0F93EA0C0F6FD056
:100D28001A4480EA010C400218BF5FEA41211ED034
:100D38004FF0006343EA501043EA5111A0FB013120
:100D48000CF00040B1F5000F3EBF490041EAD371F5
:100D58005B0040EA010062F17F02FD2A1DD8B3F171
:100D6800004F40EBC25008BF20F00100704790F0E0
:100D7800000F0CF0004C08BF49024CEA502040EA32
:100D880051207F3AC2BFD2F1FF0340EAC2507047F8
:100D980040F400004FF00003013A5DDC12F1190F36
:100DA800DCBF00F000407047C2F10002410021FAA8
:100DB80002F1C2F1200200FA02FC5FEA310040F1C0
:100DC800000053EA4C0308BF20EADC70704792F039
:100DD800000F00F0004C02BF400010F4000F013A71
:100DE800F9D040EA0C0093F0000F01F0004C02BF6C
:100DF800490011F4000F013BF9D041EA0C018FE7DB
:100E08000CEAD15392EA0C0F18BF93EA0C0F0AD0E0
:100E180030F0004C18BF31F0004CD8D180EA010006
:100E280000F00040704790F0000F17BF90F0004F9F
:100E3800084691F0000F91F0004F14D092EA0C0F81
:100E480001D142020FD193EA0C0F03D14B0218BF14
:100E5800084608D180EA010000F0004040F0FE405A
:100E680040F40000704740F0FE4040F440007047F6
:100E78004FF0FF0C1CEAD0521EBF1CEAD15392EA75
:100E88000C0F93EA0C0F69D0A2EB030280EA010C65
:100E980049024FEA402037D04FF0805343EA1111FE
:100EA80043EA10130CF000408B4238BF5B0042F15C
:100EB8007D024FF4000C8B4224BF5B1A40EA0C0001
:100EC800B3EB510F24BFA3EB510340EA5C00B3EB33
:100ED800910F24BFA3EB910340EA9C00B3EBD10F21
:100EE80024BFA3EBD10340EADC001B0118BF5FEA73
:100EF8001C1CE0D1FD2A3FF650AF8B4240EBC2509C
:100F080008BF20F0010070470CF0004C4CEA50205C
:100F18007F32C2BFD2F1FF0340EAC250704740F4AB
:100F280000004FF00003013A37E792F0000F00F09D
:100F3800004C02BF400010F4000F013AF9D040EA1B
:100F48000C0093F0000F01F0004C02BF490011F4AF
:100F5800000F013BF9D041EA0C0195E70CEAD153A7
:100F680092EA0C0F08D142027FF47DAF93EA0C0F8E
:100F78007FF470AF084676E793EA0C0F04D14B0272
:100F88003FF44CAF08466EE730F0004C18BF31F024
:100F9800004CCAD130F000427FF45CAF31F000431E
:100FA8007FF43CAF5FE700BF4FF0FF3C06E000BFB7
:100FB8004FF0010C02E000BF4FF0010C4DF804CDDA
:100FC8004FEA40024FEA41037FEA226C18BF7FEAEA
:100FD800236C11D001B052EA530C18BF90EA010FEC
:100FE80058BFB2EB030088BFC81738BF6FEAE1707B
:100FF80018BF40F0010070477FEA226C02D15FEA17
:10100800402C05D17FEA236CE4D15FEA412CE1D082
:101018005DF8040B704700BF844608466146FFE749
:101028000FB5FFF7C9FF002848BF10F1000F0FBD2B
:101038004DF808EDFFF7F4FF0CBF012000205DF824
:1010480008FB00BF4DF808EDFFF7EAFF34BF0120A9
:1010580000205DF808FB00BF4DF808EDFFF7E0FF42
:1010680094BF012000205DF808FB00BF4DF808ED93
:10107800FFF7D2FF94BF012000205DF808FB00BFF6
:101088004DF808EDFFF7C8FF34BF012000205DF8D8
:1010980008FB00BF4FEA4002B2F1FE4F0FD34FF0FA
:1010A8009E03B3EB12620DD94FEA002343F00043CD
:1010B80010F0004F23FA02F018BF404270474FF07B
:1010C8000000704712F1610F01D1420205D110F002
:1010D800004008BF6FF0004070474FF000007047B5
:1010E80053B94AB9002908BF00281CBF4FF0FF3187
:1010F8004FF0FF3000F0A8B9ADF1080C6DE904CE4F
:1011080000F03EF8DDF804E0DDE9022304B07047A2
:1011180038B505460C460022002328462146FFF72D
:1011280045FC28B928462146BDE8384000F00AB8F1
:10113800284604F1004100F005F8404261EB410106
:1011480038BD00BFD0B500220B4B06460F46FFF74F
:10115800BBF900F07BF90446FFF73CF90022074B86
:10116800FFF7B2F902460B4630463946FEF7F4FF60
:1011780000F06CF92146D0BD0000F03D0000F041C0
:101188002DE9F047089E0D4604468A46002B7FD17C
:101198008A42174641D9B2FA82F24AB1C2F1200115
:1011A80005FA02F39740944020FA01F141EA030A54
:1011B8004FEA17484FEA144C1FFA87F9BAFBF8FEB2
:1011C80008FB1EA30EFB09F14CEA0343994206D91A
:1011D800FB1802D2994200F224810EF1FF3E591AFF
:1011E800A3B2B1FBF8F008FB101100FB09F943EAC0
:1011F8000144A14505D93C1902D2A14500F20E814E
:101208000138A4EB090440EA0E4000211EB1D44085
:101218000023C6E90043BDE8F08702B9FFDEB2FA51
:1012280082F2002A4FD1CB1B4FEA174E1FFA87F8DC
:101238000121250CB3FBFEFC0EFB1C302B4608FBE2
:101248000CF945EA0045A9450AD97D192CBF0123A7
:101258000023A94502D9002B00F0D9800CF1FF3CEE
:10126800A5EB0905A3B2B5FBFEF00EFB105508FB74
:1012780000F843EA0544A04505D93C1902D2A04527
:1012880000F2C9800138A4EB080440EA0C40BDE72D
:101298008B4208D9002E00F0B1800021C6E9000574
:1012A8000846BDE8F087B3FA83F1002946D1AB427E
:1012B800C0F0A780824240F2A4800846002EAAD03F
:1012C800C6E9004AA7E7C2F12000974001FA02F3F5
:1012D8004FEA174EC14024FA00F51FFA87F89440E8
:1012E8001D43B1FBFEF02B0C0EFB101100FB08FC9C
:1012F80043EA01439C4509D9FB182CBF0121002171
:101308009C4502D9002900F095800138A3EB0C0315
:10131800ADB2B3FBFEF10EFB113301FB08FC45EA4D
:101328000345AC4505D97D1902D2AC4500F2898048
:101338000139A5EB0C0341EA00417AE7C1F1200429
:101348008B4002FA01F705FA01FCE24020FA04F8A2
:10135800E54000FA01FE134348EA0C024FEA13483D
:101368004FEA124C1FFA83F9B5FBF8FA08FB1A5535
:101378000AFB09F04CEA054C60450AD913EB0C0C42
:101388002CBF01250025604501D9002D55D00AF153
:10139800FF3AACEB000C92B2BCFBF8F008FB10CCA7
:1013A80000FB09F942EA0C4CE14505D913EB0C0C9A
:1013B80001D2E1453BD8013840EA0A40ACEB090CC0
:1013C800A0FB0789CC4545464A4602D306D1C64507
:1013D80004D20138B8EB070569EB03022EB3BEEB64
:1013E80005036CEB020C23FA01F20CFA04F42CFA54
:1013F80001F300211443C6E900430CE731463046A7
:1014080009E7841A65EB030301209A4656E7ACF115
:10141800020C3D4424E702383C4434E702383C449B
:10142800EFE6AEF1020E3B44D9E63146F3E6023868
:101438009C44C1E702383B4468E7AAF1020A9C448D
:10144800A7E702393D4474E7704700BF4A0011D24C
:1014580012F5001211D20DD56FF47873B3EB625206
:101468000ED44FEAC12343F0004343EA505323FA12
:1014780002F070474FF00000704750EA013002D187
:101488004FF0FF3070474FF0000070474FEA410CB3
:101498007FEA6C5C02D150EA013C0AD14FEA430C66
:1014A8007FEA6C5C02D152EA033C02D14FF00000A3
:1014B80070474FF00100704710F8012B11F8013BFD
:1014C800012A28BF9A42F7D0D01A7047034613F86A
:1014D800012B002AFBD1181A0138704700000000C0
:1014E80030B585B0FEF7F0FF04460D46089B4FF077
:1014F8000040D840FEF77EFF22462B46FEF7E4FF69
:1015080002460B46CDE9002309A3D3E90023CDE920
:101518000223FFF769FA40B969460A9B099AD1E99B
:10152800000107F0DBFF05B030BD02A9F5E700BFF9
:101538000000C0FFFFFFDF412DE9F04782B00746FA
:101548000D4616461C46DDF828A0C868FEF764FF5D
:1015580080468946F068FEF75FFF02460B46404624
:101568004946FEF7B1FFECB180468946E068FEF7D0
:1015780053FF02460B4640464946FEF7EDFD8046BE
:1015880021F00044DAF80C00FEF746FF02460B464D
:1015980040462146FFF7C2F80DA3D3E90023FFF721
:1015A8000FFA50B10B9B00935346324629463846F2
:1015B80008F0FEF802B0BDE8F0877C69064B00939E
:1015C8004FF49F73054A06493846A0470120F1E7C2
:1015D8007B14AE47E17A943FB841030028410300E9
:1015E800243F0300000000002DE9F04188B00546C3
:1015F8000E461F460C78092C13D0072C11D0012C4D
:1016080040F033811078012840F044811868FEF7D3
:1016180003FF0E9BC3E900010024204608B0BDE883
:10162800F081072C1ED0092C40F0868010780728FE
:1016380000F09780092840F0D580136913F1800FD6
:1016480000F0E4806C696FF07F02039202939E4B76
:1016580001939E4B009330239D4A9E492846A047FC
:101668000124DAE71369002B3BD1D2F80C804FF044
:1016780060514046FFF704FD002841D04FF060510B
:101688004046FFF737FA9449FFF7FAFC00283DD1A6
:10169800072C00F0CD803F68F068FEF7BDFE0446D9
:1016A8000D463846FEF7B8FE07AB02930E9B08338B
:1016B80001930526009622462B46FFF711FF07994E
:1016C8000E9BD9601F22304614F04EFBFEF792FEA7
:1016D80001F100431946FFF791F90E9B9861002428
:1016E8009BE76C690022039202937C4B0193774B32
:1016F80000932523764A77492846A04701248CE79A
:1017080041464FF06050FFF7F5F9BCE76C690022DD
:101718004FF07C53CDE904234046FEF77DFECDE92A
:1017280002016F4B01936F4B00932623684A6E4961
:101738002846A047012470E76E69204607F02AFE74
:101748000446092007F026FE03900294674B019394
:10175800674B009329235E4A66492846B04701240F
:101768005BE7136913F5004F0ED06C69624A039268
:101778000293624B0193554B00932B23544A5549CE
:101788002846A047012448E7D2F80C804FF05E5164
:101798004046FFF775FCF8B14FF05E514046FFF741
:1017A800A9F95749FFF76CFC00283FF471AF6C6941
:1017B8000022544BCDE904234046FEF72DFECDE927
:1017C8000201514B0193474B00932C23404A464951
:1017D8002846A047012420E741464FF05E50FFF716
:1017E80089F9DEE76E6907F0D5FD0446092007F0A0
:1017F800D1FD039002943D4B0193444B00932F235A
:10180800334A3C492846B047012406E74FF06E5159
:10181800D068FFF70DFC00287FF43AAF6C693C4BA9
:10182800009331232A4A3B492846A0470124F4E67D
:10183800F068FEF7F1FD04460D463868FEF7ECFD4A
:1018480002460B4620462946FEF73EFE1CA3D3E976
:101858000023FEF763FF07AB0E9A083207F0F0FD8E
:10186800079B0E9AD3600024D7E64669204607F006
:1018780091FD0446012007F08DFD03900294264B4C
:1018880001931B4B00934E23114A1A492846B0472F
:101898000124C2E66F6907F07DFD0646012007F0C6
:1018A80079FD039002961C4B0193184B00934F232C
:1018B800074A10492846B847AFE600BFAFF3008093
:1018C800140014001400243F7C4F0300084F030049
:1018D800B04E0300E44103006F120333484703008E
:1018E800444F0300504F0300244F0300C04203003D
:1018F800AC480300E44B03000080FFFF684F03007F
:101908006F1283320000F03E704F03009C480300C2
:10191800844F0300243F0300A84F03000000000089
:10192800F8B5C1F30A570B4602460C46A7F2FF3535
:101938000646132D20DC002D40DB354F2F4101EAF0
:10194800070C5CEA000C14D02FA3D3E90023FEF7A0
:1019580005FC00220023FFF747F840B1002C03DA0A
:101968004FF480132B411C4424EA07040026324616
:10197800234610461946F8BD332D07DDB5F5806FAF
:10198800F7D1FEF7EBFB02460B46F2E7A7F2134747
:101998004FF0FF3C2CFA07F70742EAD01AA3D3E925
:1019A8000023FEF7DBFB00220023FFF71DF80028C9
:1019B800DDD0002C1BDB26EA0706D8E712A3D3E903
:1019C8000023FEF7CBFB00220023FFF70DF80028C9
:1019D800CDD0002C02DB00263446C8E724F00043B3
:1019E8000C4A33430026B34218BF1446BFE7142DF0
:1019F80008D00122C5F1340302FA03F39E1928BF67
:101A0800A418D8E70134D6E79C7500883CE4377EF3
:101A1800FFFF0F000000F0BF2DE9F04F164699B008
:101A28001F46446A0546DDF89480CDE904673CB951
:101A3800102011F067F868620460C460C0E90144CE
:101A48006B6A196851B15A680123284693404A6065
:101A58008B6017F034FB6B6A00221A603B1EB7BF1D
:101A680023F00043002301220593A8BFC8F80030E3
:101A7800DDF81490AC4BB8BFC8F8002033EA09036E
:101A880019D142F20F73249A1360C9F31303334335
:101A980000F06A85269B53B9A44B23E0A44B03931B
:101AA8000833269A1360039819B0BDE8F08F9F4B4E
:101AB80003930333F5E7DDE904340022CDE90C3460
:101AC800DDE90C010023FEF767FF804660B10123C2
:101AD800249A1360269B002B00F04385954B269A89
:101AE8001360013B0393DEE716ABC9F30A5428469B
:101AF800019317AB0093DDE90C2317F01FFD834614
:101B0800002C7CD00D9BA4F2FF34CDF84C80C3F39D
:101B18001303DDE90C0143F07F5141F44011002229
:101B2800854BFEF719FB7AA3D3E90023FEF7CCFC1B
:101B380079A3D3E90023FEF711FB06460F4620469A
:101B4800FEF758FC76A3D3E90023FEF7BDFC024656
:101B58000B4630463946FEF701FB06460F46FEF7B0
:101B68004DFF00228246002330463946FEF71EFF0D
:101B780048B15046FEF73EFC32463B46FEF70CFFA6
:101B880008B90AF1FF3ABAF1160F56D86B4B03EBB6
:101B9800CA03DDE90C01D3E90023FEF707FF00289B
:101BA8004DD00AF1FF3A00230F93169B1C1B631EAE
:101BB800099349BFC4F1010300230693002354BFCE
:101BC80006930993BAF1000F3BDB099BCDF838A0C7
:101BD8005344099300230A93229B092B00F2B480F3
:101BE800052BC5BF043B002401242293229B023B02
:101BF800032B00F2B580DFE803F02E7D7BA5DDE93D
:101C080016431C4404F23243202BC6BFC3F14003E1
:101C180004F21240C3F1200304F1FF34C5BF09FAEE
:101C280003F326FA00F006FA03F01843FEF7D2FB96
:101C38000123A1F1F871139371E70123B4E70F9021
:101C4800B3E7069BA3EB0A030693CAF100030A93C2
:101C580000230E93C0E700230B93239B002B00F374
:101C680082804FF001094B46CDF82090CDF88C903A
:101C780000226E6A7260042202F1140071689842B0
:101C880077D9284617F0E7F96B6A30601B68039329
:101C9800089B0E2B00F2EE80002C00F0EB80BAF1CE
:101CA800000F7ADD0AF00F03244A1AF4807F02EB52
:101CB800C303D3E90034CDE910344FEA2A145CD0C9
:101CC8001F4B04F00F040327D3E90823DDE90C01B7
:101CD800FEF724FDCDE90401194E002C4FD1DDE9B2
:101CE8001023DDE90401FEF719FDCDE904016EE0DA
:101CF8000123B1E700230B93239B0AEB030909F1A6
:101D08000103012B0893B8BF0123B1E7AFF30080AB
:101D180061436F63A787D23FB3C8608B288AC63FE9
:101D2800FB799F501344D33F0000F07F43530300D7
:101D38003A530300175303000000F83F301C030018
:101D4800081C03000123D6E7012400230B942293E7
:101D58004FF0FF3900221223CDF82090239287E715
:101D680001230B93F4E7DDF88C904B46CDF82090D7
:101D78007EE70131520071607EE70227ACE7E10798
:101D880008D50137DDE91001D6E90023FEF79CFBF1
:101D9800CDE91001641008369FE700F0A580CAF16C
:101DA8000004A34BA34E022704F00F02241103EBF7
:101DB800C203DDE90C01D3E90023FEF785FB00230C
:101DC800CDE90401002C40F08480002B8DD10F9BBD
:101DD800002B00F08B800022DDE90434CDE91034BB
:101DE800DDE91001944BFEF7E1FD00287ED0089B49
:101DF800002B7BD0B9F1000F38DD0AF1FF3801372D
:101E08004C4600228D4BDDE91001FEF75DFBCDE964
:101E180004013846FEF7EEFADDE90423FEF754FB29
:101E28000022874BFEF79AF9A1F15076CDE910010F
:101E38001196002C5DD10022824BDDE90401FEF7EA
:101E48008BF902460B46CDE90423109A3346FEF778
:101E5800CBFD002840F09482109A06F10043DDE99A
:101E68000401FEF7A3FD002840F08882DDE90C3468
:101E7800CDE90434179B002BC0F24F81BAF10E0F45
:101E880000F34B816A4B03EBCA03D3E90034CDE975
:101E98000634239B002B80F2D980089B002B00F38B
:101EA800D58040F06A820022664BDDE90601FEF724
:101EB8000BFBDDE90423FEF78DFD089C2646002870
:101EC80040F04082039F31230AF1010A07F8013BE1
:101ED8003CE2E20705D50137D6E90023FEF7F4FA1C
:101EE8000123641008366DE7022770E7D046089C86
:101EF8008FE703994E4B214403EBC40312910B99CE
:101F0800DDE9106753E90223002946D000204E4935
:101F1800FEF704FC3B463246FEF71EF9039FCDE967
:101F28001001DDE90401FEF769FD0446FEF762FAD7
:101F380002460B463034DDE90401FEF70DF902468E
:101F48000B4607F8014BCDE90423DDE91023FEF722
:101F58002DFD002864D100203749DDE90423FEF770
:101F6800FBF8DDE91023FEF721FD002840F0B480DE
:101F7800129B9F423FF47AAF0022304BDDE91001FB
:101F8800FEF7A2FA00222D4BCDE91001DDE904018C
:101F9800FEF79AFACDE90401C3E730463946FEF761
:101FA80093FA129B039C1493CDE91001DDE9040117
:101FB800FEF724FD1590FEF71DFA02460B46DDE9F3
:101FC8000401FEF7C9F8159B06460F463033002278
:101FD80004F8013B129B9C4224D11B4BDDE9100104
:101FE800FEF7BCF802460B4630463946FEF7FCFCC5
:101FF800002870D100201449DDE91023FEF7ACF861
:1020080002460B4630463946FEF7D0FC00283FF41E
:102018002DAF149F7B1E149317F8013C302BF8D07A
:10202800C24648E0054BFEF74FFACDE90401BDE78B
:10203800301C0300081C03000000F03F000024408F
:1020480000001C40000014400000E03FDDE9048966
:10205800039F40464946DDE90623FEF75FFBFEF78E
:10206800CDFC0446FEF7C6F904F13006DDE9062387
:10207800FEF72AFA0B46024649464046FEF76CF838
:1020880007F8016B039E089BBE1BB34238D102467A
:102098000B46FEF763F880468946DDE90623FEF71E
:1020A800A3FC58BB40464946DDE90623FEF774FC0D
:1020B80008B1E10722D42846594617F000F8002352
:1020C8000AF101003B70249B1860269B002B3FF40B
:1020D800EAAC1F60E7E427463B461F4613F8012D8C
:1020E800392A07D1039A9A42F7D13022039908F185
:1020F80001080A701A7801321A7091E7D046EBE7A6
:102108000022A14BFEF7E0F9002200238046894611
:10211800FEF742FC00289CD0CDE70B9A002A00F07D
:10212800CC80229A012A00F3AF80139A002A00F08B
:10213800A78003F233430A9C069F069A012128468A
:102148001A440692099A1A44099217F05CF806464E
:10215800002F0CDD099B002B09DDBB42069AA8BFA6
:102168003B46D21AFF1A0692099AD31A09930A9B78
:10217800F3B10B9B002B00F0A480002C10DD31463E
:102188002246284611F072FD5A4601460646284660
:1021980017F042F8804659462846C34616F08FFF86
:1021A8000A9B1A1B04D05946284611F05FFD834646
:1021B8000121284617F027F80E9B0446002B40F310
:1021C80082801A460146284611F050FD229B04469B
:1021D800012B7BDD4FF00008236904EB83031869AA
:1021E80016F0C3FFC0F12000099B184410F01F002F
:1021F80000F08D80C0F12003042B40F38680C0F1ED
:102208001C00069B074403440693099B0344099357
:10221800069B002B05DD59461A46284617F097F805
:102228008346099B002B05DD21461A46284617F0F0
:102238008EF804460F9B002B6BD02146584617F0AA
:10224800E5F8002865DA002359460A22284616F0E0
:102258004DFF0B9B0AF1FF3A8346002B00F08B8160
:10226800314600230A22284616F040FFB9F1000F34
:10227800064600F39180229B022B40F38D8050E0AC
:10228800169BC3F1360356E7089B5C1E0A9BA342C4
:10229800B7BF0A9B1C1B0A94E21ABFBF0E9B0024FF
:1022A8009B180E93089B002BBBBF069B089A069FA2
:1022B8009F1AACBF089B00233FE70A9C069F0B9E12
:1022C80046E70A9A6FE7229B012B19DC049BBBB9EE
:1022D800059BC3F313039BB9059B23F000431B0D18
:1022E8001B0583B1069B4FF0010801330693099B38
:1022F800013309930E9B002B7FF46EAF012073E727
:102308004FF00008F6E79846F4E781D018461C30ED
:1023180077E7089B002B39DC229B022B36DDDDF8A2
:102328002090B9F1000F0DD121464B4605222846D1
:1023380016F0DCFE01460446584617F067F80028F8
:102348003FF7C0AD239B039F6FEA030A4FF00008D5
:102358002146284616F0B3FE002E3FF4ACAEB8F185
:10236800000F05D0B04503D04146284616F0A7FE19
:102378003146284616F0A3FE9DE600242646E1E7EE
:10238800C24626469EE500BF000024400B9BDDF8B0
:102398002090002B00F0F680002F05DD31463A46EC
:1023A800284616F0D4FF0646B8F1000F55D07168DC
:1023B800284616F050FE3269074606F10C01023233
:1023C8000C30920016F091FB01223946284616F08F
:1023D800BEFF039BB046064601330893039B4B445C
:1023E8000A93049B03F001030993089B214658466E
:1023F800013B049316F047FD0346414606905846B4
:1024080030330B9317F002F83246814621462846AE
:1024180017F017F8C26807460B9B02BB01465846DF
:1024280016F0F4FF0B9B024639462846CDE90B32DD
:1024380016F045FE229B0C9A089F43EA0201099B6D
:102448000B430B9B0DD1392B29D0B9F1000F01DDBE
:10245800069B3133049A13707AE73046B9E70122B4
:10246800E2E7B9F1000F06DB229941EA0909099967
:1024780059EA010120D1002AECDD594601222846FB
:10248800089316F064FF2146834616F0BFFF002824
:10249800089B02DCDED1DA07DCD5392BD8D1392309
:1024A800049A13703B461F46013B17F8012C392A42
:1024B80050D001321A704BE7002A03DD392BEED0D9
:1024C8000133C7E7089A0A9902F8013C8A422AD0E0
:1024D800594600230A22284616F008FEB0458346CE
:1024E8004FF000034FF00A024146284607D116F084
:1024F800FDFD80460646089B0133089375E716F0F4
:10250800F5FD3146804600230A22284616F0EEFDE6
:102518000646F0E7B9F1000F039A4FF00008CCBF68
:102528004F4601271744594601222846089316F0BA
:102538000EFF2146834616F069FF0028B2DC02D15F
:10254800089BDB07AED43B461F4613F8012D302A03
:10255800FAD0FDE6039A9A42A5D10AF1010A31237D
:1025680079E7134BFFF7BEBA269B002B7FF496AA98
:10257800104BFFF7B7BAB9F1000F03DC229B022B0F
:102588003FF7CFAE039F2146584616F07CFC039ACE
:1025980000F1300307F8013BBA1A9145BADD5946F4
:1025A80000230A22284616F0A1FD8346EBE700BF68
:1025B800165303003A53030038B525280CD00C4BAA
:1025C8001A680C4988541B684F2B0ED8084B1B6897
:1025D8000133074A136038BD054C236805480025B8
:1025E800C55411F084FC2560F5E75023F1E700BFDE
:1025F80024050020D004002008B511F092FC00F05A
:10260800D1FA00F0D9FA054811F07DFC044B0122FB
:102618001A70044811F077FC08BD00BFF81C0300CD
:10262800A8F20020081D030070B504460D4600F00E
:1026380001FA2946114811F066FC6E1E1DB100F022
:10264800E7F93546F9E70E4811F05DFC21460D48DB
:1026580011F059FC00F072FA11F047FC651E1CB12C
:1026680000F0D6F92C46F9E711F040FC00F066FAC4
:10267800054811F048FC00F01FFA70BD141D030056
:10268800281D0300381D03004C1D030070B582B0DF
:102698005022514916F09DFB10B1012002B070BDC7
:1026A8004E4910F091FF0546D8B150224C4916F01A
:1026B80090FB50BB494910F087FFB8B116F0F5F907
:1026C8000146484B1860B0B1474B00221A60B0F57C
:1026D800406F15D94FF44062444811F014FC0020B3
:1026E800DCE7434811F00FFC0020D7E7414811F020
:1026F8000AFC0020D2E7404811F005FC0020CDE795
:102708003E4811F000FC0020C8E750223C4928460A
:1027180016F05FFB60BB002412E03A4811F0F3FBAF
:10272800394B195D394811F0EEFB013414F0070FED
:1027380003D02C4B1B689C420CD1354811F0E3FBAD
:10274800284B1B68A34209D914F0070FE5D0002CC9
:10275800E6D1E2E72F4811F0D6FBF1E714F0070FB6
:1027680001D100209AE72A4811F0CDFB002095E717
:102778005021284611F0BFFB064610F001041FD176
:1027880000238DF80630B44224D2631C2A5D8DF8EC
:102798000420EB5C02348DF8053001A811F01CFB15
:1027A800002811DB104A13681749C8540133136015
:1027B8000C4A12689342E6D1174811F0A4FB07E0CF
:1027C800164811F0A0FB03E001A9154811F09BFB86
:1027D800002063E7002061E75C1D0300601D030023
:1027E800901D0300CC040020C8040020F41D030041
:1027F800641D0300981D0300C81D0300241E030068
:10280800401E0300481E030028050020541E030034
:1028180004510300501E0300A41E03005C1E0300A5
:10282800841E030010B5044650223B4916F0D1FA25
:1028380048B93A493A4811F066FB3A493A4811F022
:1028480062FB002010BD50223849204616F0C1FA1C
:1028580030BB3249364811F056FB364811F053FB6D
:10286800354811F050FB354811F04DFB344811F054
:102878004AFB344811F047FB334811F044FB334816
:1028880011F041FB324811F03EFB324811F03BFB9E
:10289800314811F038FB314811F035FB0020D1E701
:1028A8002046FFF7F3FE0028CCD050222C492046C2
:1028B80016F08FFA18BB2B4910F086FEB0B116F04F
:1028C800F4F8041E0DDD2749002010F07DFEA0B1AC
:1028D80016F0EBF8011E0BDA234811F014FB002068
:1028E800B0E7224811F00FFB0020ABE70A210124D2
:1028F8002046FFF799FE0020A4E70A21F8E75022B6
:102908001B49204616F065FA08B101209AE700F045
:10291800D3F8002096E700BFB41E0300BC1E0300D6
:10292800E01E0300F41E0300FC1E03000C1F03003E
:10293800141F0300045103001C1F0300441F03005D
:10294800741F03009C1F0300D01F0300082003000E
:10295800402003005C2003008C200300D4200300E7
:1029680004210300601D0300342103000C2103002F
:1029780058210300144B1B7803B9704710B513494D
:1029880010F022FE04465022114916F022FA40B9EE
:10299800104A1149114811F0B6FA114811F0B3FA6A
:1029A80010BD50220F49204616F013FA10B900F056
:1029B800C5F8F2E72046FFF735FF0028EDD021469D
:1029C800094811F0A0FAE8E7A8F20020601D03000A
:1029D80060210300682103007421030078210300AB
:1029E800081D03008C2103009821030010B5064B35
:1029F8001C688C4200D90C4618B12246034916F0CF
:102A080074F8204610BD00BFC80400202805002027
:102A180010B5064B1C6804F10C0005F08BF900B9E1
:102A280010BD0349A06813F049FAF9E7E81200203D
:102A3800B421030000B5ADF5C05D81B04FF440612D
:102A48000DEB0100FFF7D2FFB0F5406F01D1002375
:102A58000FE04FF440620146154811F054FA0DF5A5
:102A6800C05D01B05DF804FB803A0DF80320013326
:102A78009BB2B3F5406F08D20DF54062D256002ADA
:102A8800F2DB803A0DF80320F1E70A4B18680021C1
:102A98000C3004F0CDFB034600B14068996900236F
:102AA8009942DCDD1DF90320C2540133F8E700BF69
:102AB800C4210300E8120020F8B51B4811F023FADE
:102AC800002420E01F57194D286800210C3004F01D
:102AD80053FBC668286800210C3004F04DFB0069E0
:102AE800381AFEF7BDF83146FEF70EF9FDF794FCEB
:102AF80002460B460E4811F006FA082C02D80D487B
:102B080011F001FA0134092C0AD8084B1868002181
:102B18000C3004F031FB03460028D3D04368D1E7DA
:102B2800054811F0F0F9F8BDEC210300E812002087
:102B3800F82103000022030058200300F8B515F01F
:102B480083FF4E01430146EAD0621B1A62EB010281
:102B5800560246EAD3565F0232463B1841EB020260
:102B6800970147EA93679E01F31A67EB02021C1864
:102B780042EB010523462946002C75F1000206DBCD
:102B8800DB0B43EA4141064811F0BDF9F8BD47F6B1
:102B9800FF73E3184FF0000145EB0101F0E700BFB8
:102BA8000422030008B5034811F0ADF9FFF7C6FF8A
:102BB80008BD00BF14220300F0B58DB0B04B1B68F0
:102BC80013F0010F12D004A807F022FEAD480368E5
:102BD8009B6900219847D8B1AA4BD3F81001002867
:102BE8003AD00022A84913F069F935E0A548A74B67
:102BF80003600023C0F8E430C0F80C31C0F810318D
:102C08009F4B01221A60A24AA24911F04DFEDAE751
:102C18009C4BD3F8E460062E30D89A4F07EB461C3D
:102C28000CF1040404AD0FCD0FC495E80F0084E83F
:102C38000F000022CCF818200136C7F8E460D7F856
:102C48000C31F91881F8E82003F13C02924947F861
:102C580022100133C7F80C3104A80BF0B5FD8948E0
:102C680003689B690921984790B1864BD3F81001F6
:102C780090B30922844913F021F92DE0D3F810010B
:102C88000028E9D007230022844913F017F9E3E765
:102C98007C4BD3F8E460062E30D87A4F07EB461CFD
:102CA8000CF1040404AD0FCD0FC495E80F0084E8BF
:102CB8000F000922CCF818200136C7F8E460D7F8CD
:102CC8000C31F91881F8E82003F13C02744947F8FF
:102CD80022100133C7F80C3104A809F0E1FF694854
:102CE80003689B690321984790B1664BD3F810019C
:102CF80090B30322644913F0E1F82DE0D3F81001F2
:102D08000028E9D007230922644913F0D7F8E3E73C
:102D18005C4BD3F8E460062E30D85A4F07EB461CBC
:102D28000CF1040404AD0FCD0FC495E80F0084E83E
:102D38000F000322CCF818200136C7F8E460D7F852
:102D48000C31F91881F8E82003F13C02554947F89D
:102D580022100133C7F80C3104A80AF06FFE494865
:102D680003689B690421984790B1464BD3F810013A
:102D780090B30422444913F0A1F82DE0D3F81001D0
:102D88000028E9D007230322444913F097F8E3E722
:102D98003C4BD3F8E460062E30D83A4F07EB461C7C
:102DA8000CF1040404AD0FCD0FC495E80F0084E8BE
:102DB8000F000422CCF818200136C7F8E460D7F8D1
:102DC8000C31F91881F8E82003F13C02364947F83C
:102DD80022100133C7F80C3104A80CF00BFF294866
:102DE80003689B691621984790B1264BD3F81001C8
:102DF80090B31622244913F061F82DE0D3F810019E
:102E08000028E9D007230422244913F057F8E3E700
:102E18001C4BD3F8E460062E4AD81A4F07EB461C21
:102E28000CF1040404AD0FCD0FC495E80F0084E83D
:102E38000F001622CCF818200136C7F8E460D7F83E
:102E48000C31F91881F8E82003F13C02174947F8DA
:102E580022100133C7F80C3104A80CF0DBFE094836
:102E680003689B691921984760B3064BD3F8100192
:102E780000284BD01922044913F020F846E000BF7F
:102E88002C110020D411002034220300D02203008A
:102E980050EB0020713E0100299D000084220300B0
:102EA80051A2000055A0000001A40000019C0000F0
:102EB800D3F810010028CFD0072316224F4912F06B
:102EC800FDFFC9E74E4BD3F8E460062E30D84C4FCF
:102ED80007EB461C0CF1040404AD0FCD0FC495E8B4
:102EE8000F0084E80F001922CCF818200136C7F823
:102EF800E460D7F80C31F91881F8E82003F13C02B6
:102F0800404947F822100133C7F80C3104A80CF0E7
:102F1800F5FC3B4803689B690121984790B1384B01
:102F2800D3F8100190B30122374912F0C7FF2DE002
:102F3800D3F810010028E9D0072319222F4912F0ED
:102F4800BDFFE3E72E4BD3F8E460062E28D82C4FBC
:102F580007EB461C0CF1040404AD0FCD0FC495E833
:102F68000F0084E80F000122CCF818201644C7F897
:102F7800E460D7F80C31F91881F8E82003F13C0235
:102F8800224947F822100133C7F80C31204B1B683F
:102F980013F0010F0ED01F4B1F4A1A600DB0F0BD81
:102FA800D3F810010028F1D007230122134912F0A9
:102FB80085FFEBE7194810F0EAFF0146164C206040
:102FC8002346174A43F8042FA36004F10C05002296
:102FD800029201934FF458430093124B084A284633
:102FE80012F09AFB284604F08DFB094B01221A6067
:102FF8000D4A0E49204611F057FCCCE78422030005
:10300800D411002035A60000342203005D9E000084
:1030180028110020E812002030110020489B0100F0
:1030280068260300EC12002050EB0020733E0100DC
:1030380008B50B6801330B60014B1B68984708BD46
:1030480000000020014B1860704700BF00000020FE
:1030580000B583B002460B460021019101A903483F
:1030680000F04EF903B05DF804FB00BF39300000F2
:1030780010B584B00446019002910021039101A982
:10308800054800F03DF9039B029A934201DA0022B9
:10309800E254039804B010BDEB3F01002DE9F04362
:1030A80083B0044608461546A38B13F0080F05D1D4
:1030B80003F0070600230093019369E0012909D072
:1030C80043F02003A38385F31188BFF36F8F03B008
:1030D800BDE8F08343F01003A383F4E7204610F023
:1030E800DBFF57E0D4F818904A466946204610F0AE
:1030F800ECFF00275AE023691F680621204610F0DC
:10310800A4FF4FF0000951E023695F6804212046BD
:1031180010F09BFF4FF0000948E023699F680521E4
:10312800204610F092FF4FF000093FE0002246E0F1
:10313800002244E043F00803A38385F31188BFF31A
:103148006F8F002944D1009B2BB14B4642466946FC
:10315800204611F030F817B125492046B8474FF0FE
:103168002003EFF3118583F31288BFF36F8FA38BCE
:1031780023F00803A383A38B13F0100F2ED023F0A2
:103188001003A3830120A68B06F0070600289AD017
:103198000228A3D0002896D00128A3D00328AAD0BB
:1031A8000428B1D00528B8D00027B946A38B03F06E
:1031B8000708B045BAD0A268002AB9D00122114642
:1031C800002AB7D1009A002AB4D1002FB2D1D2E791
:1031D8004A464146204610F040FFB4E713F0200F5E
:1031E80004D023F02003A3830220CCE70020CAE701
:1031F800ED41010010B40446026800201378074925
:10320800595C11F0040F06D000EB8000013203EB8B
:1032180040003038F2E7226010BC7047F5510300D7
:103228002DE9F04F83B004460D4601929A46DDF829
:103238003080D378314A13F802B00BF0030B6F2BB0
:103248000FD006D9702B0FD0782B10D14FF0100962
:1032580023E0582B02D04FF00A091EE04FF0100966
:103268001BE04FF0080918E04FF0100915E04FF087
:103278000A0912E0D2B23032D2B208F8012D324631
:103288003B4620462946FDF72BFFBD4208BFB44206
:1032980018D3D04516D904460D464E4600274A464F
:1032A8003B4620462946FDF71BFF092AE2D9BBF118
:1032B800010F03D0D2B25732D2B2DEE7D2B23732E0
:1032C800D2B2DAE7019B1B7813F0200F05D0B9F1D1
:1032D800080F06D0B9F1100F09D0404603B0BDE879
:1032E800F08F019A937843F008039370F5E7019AF9
:1032F800937843F010039370EFE700BFF551030094
:103308002DE9F04F93B006460D46924603930024EC
:103318009AF80000002800F0D684252808D00AF181
:10332800010A2946B0470028C0F2CE840134EFE7ED
:103338000023069307930B93089309930A930AF1C2
:1033480001089AF80130252B01D001272CE00AF159
:1033580002088DF82330A8E19DF8203043F00403DB
:103368008DF82030FFB108F101081CE09DF82030ED
:1033780043F008038DF82030F4E79DF8203043F03F
:1033880010038DF82030EDE79DF8203043F020033E
:103398008DF82030E6E79DF8203043F040038DF8A3
:1033A8002030DFE700274FB398F80030203B102B80
:1033B800F8D801A252F823F083330000AD3300009F
:1033C800AD33000091330000AD330000AD33000091
:1033D800AD330000AD330000AD330000AD33000065
:1033E800AD33000075330000AD33000061330000D9
:1033F800AD330000AD3300009F3300009DF820304E
:1034080003F04403442B6DD0CDF814809DF8203090
:1034180043F080038DF8203098F800302A2B68D0CC
:1034280005A8FFF7E7FE059B984512D09DF82030C8
:1034380043F080038DF820300990C3F3400300283F
:1034480060DB002213439DF8202063F341028DF8CE
:103458002020059B05931B782E2B14BF00230123E6
:103468009DF8212063F341028DF82120002B4BD0D9
:10347800059B5A1C05925B782A2B48D005A8FFF7B4
:10348800B9FE0A909DF82030C3F34003002847DBBB
:10349800002213439DF8202063F341028DF8202079
:1034A800DDF8148098F800304C3B2E2B00F2DC80BD
:1034B800DFE803F0CADADADADADADADADADADADA22
:1034C800DADADADADADADADADADADADADADADADA54
:1034D80038DA6ADA51DADADADADADADAC0DADADAF9
:1034E800DADAB6009DF820306FF386138DF82030B5
:1034F8008AE79DF8213043F001038DF821304346D7
:103508000133A7E701229DE7DDF81480CAE79DF89B
:10351800213043F004038DF8213002F10108C1E79E
:103528000122B6E708F1010298F80130682B08D0AB
:103538009DF82130022161F3C6038DF821309046B1
:103548002BE09DF82130012262F3C6038DF821306B
:1035580008F1020821E008F1010298F801306C2B0B
:1035680008D09DF82130032161F3C6038DF821307E
:10357800904612E09DF82130042262F3C6038DF8CC
:10358800213008F1020808E09DF82130052262F395
:10359800C6038DF8213008F1010818F8013B8DF8B1
:1035A8002330A3F14102372A00F25081DFE812F0FC
:1035B80026014E014E014E012601260126014E012B
:1035C8004E014E014E014E014E014E014E014E017B
:1035D8004E014E014E014E014E014E014E011301A6
:1035E8004E014E014E014E014E014E014E014E015B
:1035F80026014E01130163002601260126014E0112
:1036080063004E014E014E014E012F0113013F018F
:103618004E014E013F014E0113014E014E011301AF
:103628009DF82130062262F3C6038DF8213008F197
:103638000108B2E79DF82130072262F3C6038DF82E
:10364800213008F10108A8E79DF82130082262F32B
:10365800C6038DF8213008F101089DF8203043F0A9
:1036680002038DF8203098E79DF821306FF3C603E8
:103678008DF8213091E79DF82220012161F30202A3
:103688008DF822209DF8212002F07802402A00F0CF
:10369800AA80632B00F0AE809DF82030C3F340026F
:1036A800174367F341038DF820309DF8213013F05C
:1036B800010F00F0DA80039B1A1D03921F68002F88
:1036C800C0F2CB809DF8213013F0040F00F0DF80AA
:1036D800039B1A1D0392D3F800B0BBF1000FC0F290
:1036E800CD80002309930A939DF8223003F0070345
:1036F8009DF82110C1F3C301012B00F0D180022BEA
:1037080000F01681042B00F06781032B00F07E8106
:103718009DF8209019F00303029340F07D819DF8F5
:103728002330253B532B00F23382DFE813F081016D
:1037380031023102310231023102310231023102E9
:1037480031023102310231023102310231023102D9
:1037580031023102310231023102310231023102C9
:1037680031023102310231023102310231023102B9
:1037780031023102310231023102310231023102A9
:103788003102310231023102310231023102310299
:1037980031023102C70131023102310231023102F4
:1037A80031023102310231023102A101AB01310291
:1037B800310231023102AB013102310231023102F0
:1037C8000802C701EA01310231028F013102C70143
:1037D80031023102C7019DF82220022161F3020261
:1037E8008DF822204EE79DF8201041F001018DF858
:1037F80020104EE7171E18BF01274DE79DF822300D
:10380800042262F302038DF82230012744E79DF871
:103818002230032262F302038DF822309DF8213012
:1038280003F07803402B7FF437AF012734E79DF886
:103838002230032262F302038DF822309DF82130F2
:1038480013F0780F3FF428AF012725E79DF82030C3
:1038580043F001038DF820301EE79DF8203043F037
:1038680004038DF820307F422CE79DF92030002B8F
:1038780002DB4FF0FF3725E7099F23E79DF821304A
:103888006FF341038DF821304FF0FF3B29E713F028
:10389800020F02D0DDF828B023E74FF0FF3B20E706
:1038A800CB1E042B04D8DFE803F00B1D29353500A7
:1038B800039B1A1D03921A68D317CDE9062306E065
:1038C800039B1A1D03921A68D317CDE90623012911
:1038D80028D002297FF41CAFBDF91820D317CDE9F1
:1038E800062315E7039B073323F0070303F10802B8
:1038F8000392D3E90023CDE90623E8E7039B0733C6
:1039080023F0070303F108020392D3E90023CDE96A
:103918000623DCE7039B1A1D03921A68D317CDE927
:103928000623D4E79DF81830069300230793EFE6A3
:10393800CB1E042B04D8DFE803F00B1F35414100F0
:10394800039B1A1D03921B680693002307931EE02E
:103958009DF82330632B07D0039B1A1D03921B6825
:1039680006930023079312E0039B1A1D03921B681A
:103978000693002307930AE0039B073323F007030A
:1039880003F108020392D3E90023CDE906230129B4
:103998001CD002297FF4BCAEBDF818300693002372
:1039A8000793B5E6039B073323F0070303F10802E7
:1039B8000392D3E90023CDE90623E8E7039B1A1D08
:1039C80003921B68069300230793E0E79DF81830DD
:1039D8000693002307939BE608290BD0039B073324
:1039E80023F0070303F108020392D3E90023CDE98A
:1039F80006238DE6039B073323F0070303F1080230
:103A08000392D3E90023CDE9062381E6039B1A1D1F
:103A180003921B6806937BE6434652462946304686
:103A280010F066FD0028C0F24F810444C2466FE4DE
:103A380029462520B0470028C0F246810134DDF828
:103A480008900DF1460B4FF0000AA7E0DDF818A02A
:103A5800BBF1000F08DB5946504615F0DFF90AEBB9
:103A6800000BDDF8089099E05046FDF72FFDF6E7CA
:103A7800069B8DF83030DDF808900DF1310B0DF113
:103A8800300A8BE019F0080F05D119F0100904D09D
:103A98004FF0200901E04FF02B09DDE90623002A49
:103AA80073F1000102DBCDE9062309E0524263EB22
:103AB8004303CDE906234FF02D0901E0DDF8089016
:103AC8000DF1460300930CAB08AADDE90601FFF7E8
:103AD800A7FB8246BBF1000FC0F290800DF14603B0
:103AE800A3EB0A039DF820206FF386128DF820209F
:103AF8009B4540F28680ABEB030309930DF1460B1F
:103B08004CE0069830B9DDF80890DFF8C4B1ABF1A5
:103B1800050A43E00DF1460300930CAB08AA002107
:103B2800FFF77EFB82469DF8223043F010038DF8A4
:103B3800223078238DF82330DDF80890CAE7069AFA
:103B48009DF82130C3F3C303072B06D8DFE803F041
:103B5800040C0E1012171C1E1460DDF808900DF1ED
:103B6800460B4FF0000A19E01470F6E71480F4E7EA
:103B78001460F2E72046E117C2E90001EDE72046AC
:103B8800E117C2E90001E8E71460E6E71460E4E73A
:103B9800DDF808900DF1460B4FF0000ABAF1000F5E
:103BA80000F08E80ABEB0A02B9F1000F00D00132B1
:103BB8009DF8221011F0100F26D00232099B1344F1
:103BC80011F0400F01D00A9A1344002F32DDFF1A7A
:103BD8009DF8203013F0040F2CD113F0400F18D0AB
:103BE800B9F1000F18D029464846B04700286BDBCA
:103BF8000134DDF80890302302930FE00DF1460BF5
:103C0800CCE70DF1460BC9E711F0080FD6D0013209
:103C1800D4E72023029301E0302302933B465F1E42
:103C2800002B07DD29460298B04700284CDB0134F9
:103C38003B46F4E7B9F1000F05D029464846B0479E
:103C4800002841DB01349DF82230C3F30012C3F38E
:103C5800C003134305D029463020B047002833DB82
:103C680001349DF8223013F0100F06D029469DF834
:103C78002300B047002827DB0134099B03F1FF39F3
:103C8800002B07DD29463020B04700281CDB013413
:103C98004B46F3E75B4652462946304610F028FC6F
:103CA800002811DB0444002F07DD29462020B047F7
:103CB800002809DB0134013FF5E7C246FFF728BBBE
:103CC800C246FFF725BB204613B0BDE8F08F00BF02
:103CD800F922030008B504464FF02002EFF31183E0
:103CE80082F31288BFF36F8F11F00DFA204600F0AF
:103CF80007FD034810F08DF900F078FAFCE700BFE3
:103D0800FC22030010B44FF02003EFF3118483F377
:103D18001288BFF36F8F0121124BC3F80015124AA6
:103D28000223C2F8D0361148D0F8003223F0E0431D
:103D380043F04053C0F80032D0F8043223F0E04397
:103D480043F04053C0F80432C2F80417C2F804190B
:103D5800C2F8001B84F31188BFF36F8F002010BCDA
:103D6800704700BF001000500040005000258450EC
:103D780070B108B50246074B1B680748A0FB031340
:103D88009B0C03FB02F0054B43F00103984708BD69
:103D9800704700BF6000002083DE1B43409B01008A
:103DA80084B004AB03E907009DF80430062B01D06A
:103DB80004B07047034B0122C3F80025BFF34F8FAF
:103DC80020BFFDE700400050C1B108B502460846D3
:103DD800116000235361936153639363D38793877F
:103DE800D38393834FF0FF33136213648B6843B11B
:103DF8009B6C43B105499847002008BD6FF012003D
:103E080070470020F9E70020F7E700BF23470100CB
:103E180000B583B001220DF10701054810F0C3FC7D
:103E2800002801DB9DF8070003B05DF804FB00BF24
:103E3800FCEA002038B5104814F0BCFBB0B10E49BC
:103E48000E48FFF7C1FF044670B90B4B9B689B6C8B
:103E58007BB10A4D10220A49284610F0E5FC1022D1
:103E68000849284610F0C5FC204638BD6FF01204FA
:103E7800FAE76FF08504F7E748970100FCEA0020AD
:103E880040EB0020ECEA002010B5044C044B9C42A7
:103E980003D254F8043B9847F8E710BDD8990100BD
:103EA800D8990100064B1B684BB110B55C1E044A3B
:103EB80052F8233098472346002CF7D110BD70479D
:103EC800D09901001B4B1B68002B32D130B585B04F
:103ED800184B01221A60184B93E8070004AB03E95A
:103EE8000700164B63B110F01EFB4FF02003EFF3F1
:103EF800118583F31288BFF36F8F114B1C680AE09A
:103F0800002383F31188BFF36F8FEEE723460CB1CC
:103F1800236843B11C4634B1A368002BF6D0064A87
:103F280010789847F2E785F31188BFF36F8F05B0D3
:103F380030BD7047040000205CEB00202F450100D5
:103F480054EB002070B588B006462A4C6D460146F1
:103F5800284610F085FC95E8070084E807002078DB
:103F6800002845D0244B00221A60B6F1FF3F0CD13F
:103F78000DF0EEFC4FF02003EFF3118583F3128868
:103F8800BFF36F8F1D4B1C6816E0A368590CD8034C
:103F98001B4C1C4A002300194FF0000444EB01019C
:103FA800FDF79EF80121301A14F01FFDE0E72346C3
:103FB8000CB1236843B11C4634B16368002BF6D0BA
:103FC8000C4A10789847F2E785F31188BFF36F8F92
:103FD800084B93E8070008AB03E907000A4B0BB14D
:103FE800FFF7DEFEFFF76EFF0DF0B0FE014B18780D
:103FF80008B070BD5CEB00200400002054EB0020EA
:104008003F420F0040420F00A93D000008B502489A
:104018000EF008FA08BD00BF2823030008B308B54E
:104028004368042B07D0082B12D0FBB100680DF0B1
:104038007FFB002014E003680022D3E8EF1F01296A
:1040480003D1C3E8E02F0028F7D10DD1104607E0CF
:1040580003681B7803F580730020054A42F82300A3
:1040680008BD6FF4E04070470248F9E70248F7E7F7
:1040780000000350E98FFFFFEA8FFFFF70B308B518
:104088004368042B04D0082B0FD0C3B915480BE0A4
:1040980003680122D3E8EF1F002903D1C3E8E02F0A
:1040A8000028F7D116D1002008BD03681B7803F556
:1040B80080730D4A52F8233073B90020F4E7006882
:1040C8004FF0FF324FF0FF330DF0A8FA0028EBD085
:1040D8000648E9E70548E7E70448E5E76FF4E04004
:1040E800704700BFEA8FFFFF00000350E98FFFFF12
:1040F80010B5044690B16368042B0ED0082B0CD081
:104108005BB113F0020F0ED1236800221A605A60C7
:104118009A60DA601A610023636010BD054B5B6822
:1041280005489847E7E72146044814F090FA002329
:104138002360F0E76C0000203023030068EB0020C8
:1041480010B5044678B16368042B0BD0082B09D04E
:104158000BB9236863B1206814F0EEFA636843F082
:104168000103636010BD104B5B6810489847EAE78D
:104178004FF0FF324FF0FF3321460D480DF026F97E
:1041880008B923681BB9084B5B680A489847236835
:1041980000221A605A609A60DA601A61636843F014
:1041A80002036360D7E700BF6C00002030230300E0
:1041B80068EB00205823030008B540231422044963
:1041C800044814F035FA044904480EF089F908BD8A
:1041D80088EB002068EB0020982303008823030065
:1041E800014910220A60704710ED00E072B64040A5
:1041F80080F31188BFF36F8FBFF34F8F30BF62B664
:10420800BFF36F8F704700BF72B6494081F31188C2
:1042180020BF80F3118862B6704700BF43B2002BFD
:1042280008DB00F01F005B09012202FA00F0024AD5
:1042380042F82300704700BF00E100E04209054B47
:1042480053F8222000F01F00012303FA00F0104069
:10425800704700BF00E100E0013143B2002B08DBEA
:104268004901C9B203F1604303F5614383F80013C0
:10427800704700F00F004901C9B2014B195470474B
:1042880014ED00E030BFFFF7FDBF00BF08B50B4BD2
:104298000B4A22F07F029A60BFF34F8FBFF36F8FF4
:1042A800D3F8882022F47002C3F888200DF02EF885
:1042B8000DF0BCFE00F0DAF90DF034F800ED00E086
:1042C800000000000A4A9368C3F8A8000949096871
:1042D800C3F8AC1008494B6843F080534B60002387
:1042E80083F31188BFF36F8F9368D3F8AC007047DE
:1042F8003CF200205050030000ED00E014498A68A9
:104308004FF030001044EFF3098C80E8F01F2020B4
:1043180080F31288BFF36F8F0E4F4FF00066CA69A3
:104328008A603E60D2F8A8000023C2F8A83080F363
:10433800118802F1300090E8F01F8CF3098802F12F
:10434800000004B510F0ABFABDE804407047000067
:104358003CF2002004ED00E01EF0040F0CBFEFF368
:104368000880EFF30980816911F8021C0229FFD047
:1043780001B510F082FA01BD10B4A2F120040D4974
:1043880021F0010142F8081C42F8203C019B42F848
:104398001C3C029B42F8183C039B42F8143C4FF02B
:1043A800807342F8043C04650023C0F8A83010BCB0
:1043B800704700BFF9420100094B9860D0F8983067
:1043C80083F30B88104681F30988002163B681F3D3
:1043D8001188BFF36F8F002200230FF089FF00BF01
:1043E8003CF2002001B572B60B4A906900281EBF46
:1043F8000021916114F078F962B6EFF30580A0F11D
:1044080010004FEAC0000549014409C99847BDE8B2
:1044180001400349084700003CF20020A89701002A
:104428002D440000044B9968D869884203D0034999
:104438004FF080520A6070473CF2002004ED00E023
:1044480010B51446134B9A6A9A6A9B6A13F0020FC6
:104458000BD0104B5A6B9B6A13F0800F05D021B11B
:104468000C4A936A23F0800393620A4B9A6A9A6A09
:104478009B6A13F0100F01D1064B9B6A054A936A99
:1044880043F0FF039362012110F015FA2070002019
:1044980010BD00BF00ED00E010B51446124B9A6A3B
:1044A8009A6A9B6A13F4007F0BD00F4B9A6B9B6A36
:1044B80013F4004F05D021B10B4A936A23F400434B
:1044C8009362094B9A6A9B6A13F4807F01D1064B69
:1044D8009B6A054A936A43F47F439362012110F073
:1044E800EAF92070002010BD00ED00E00A4B9A6A3E
:1044F8009A6A986A10F480100BD1074B9A6A9A6AE4
:104508009A6A9A6A9A6A6FEA02426FEA12429A6251
:1045180070470220F1E700BF00ED00E010B5044647
:1045280000230B701B4BD86A10F002002DD1DB6AF8
:10453800002B2BDB174BDB6A13F0804327D0A369D2
:1045480033F8022C4DF602739A4210D003F16043FF
:1045580003F626631B7863B90F4B1B787BB90F4BA7
:104568001B889BB293B12046FFF7C0FF0EE020687E
:104578000CE00A4601212046FFF762FF06E00A46E2
:1045880001212046FFF788FF00E0002010BD1846F3
:10459800FCE700BF00ED00E029ED00E02AED00E0B7
:1045A800F0B58BB00C46254B5968C1F308010023C0
:1045B80083F31188BFF36F8F02F07F43B3F17F4F0E
:1045C80015D102F00C03082B14D012F0080F0BD0F1
:1045D80000270DF12702204610F072F906469DF8D3
:1045E800273053B10BB0F0BD04460127F1E700278F
:1045F8003C46EEE700273C46EBE701AD20686168E2
:10460800A268E3680FC520696169A269E3690FC5FB
:104618004FB1089BC3F308025AB96FEA53236FEAF4
:104628004323089305E0089B23F4FF7323F0010359
:10463800089301A9304610F01CF9D3E700ED00E01B
:10464800044B5A6942F010025A615A6942F4806276
:104658005A61704700ED00E0EFF30880EFF309813D
:1046680001B57246FFF79CFF01BD00BF002206E0BE
:1046780002F00F01094B0B44202119760132442A1C
:104688000ADC53B2002BF3DB03F1604303F561430B
:10469800202183F80013F1E7704700BFFCEC00E02D
:1046A800002080F31488BFF36F8F002080F30A88FE
:1046B80080F30B8815F002F800200E490860BFF35C
:1046C8004F8F0D4880F3088800F03CF8202080F3D5
:1046D80011880A484FF40061401880F30988EFF305
:1046E80014800221084380F31488BFF36F8FFFF70B
:1046F800CDFD000094ED00E070740120B07501203C
:10470800BFF34F8F0549CA6802F4E062044B1343B4
:10471800CB60BFF34F8F00BFFDE700BF00ED00E0A7
:104728000400FA05064B1868C0F3072000238342EB
:1047380005DA034A9360002111610133F7E77047F6
:1047480090ED00E010B572B6002484F31388FFF7EB
:10475800E9FF23460F2B09D803F120010D4A4FF03A
:10476800FF3042F821000133DBB2F3E700230F2BBF
:1047780009D803F16001074A4FF0FF3042F82100E1
:104788000133DBB2F3E762B6BFF34F8FBFF36F8F2E
:1047980010BD00BF00E100E008B5084B9B688342EC
:1047A80002D00DF01BFC08BDEFF30583002BF8D0F9
:1047B800034A536843F080535360F2E73CF2002009
:1047C80000ED00E010B584B0094C2346094A0121E8
:1047D800094810F0DAF800230393084B0193E41A10
:1047E8000294012101A810F0D4F804B010BD00BF54
:1047F8000000072000000020AC2303004003002035
:10480800014B024A1A63704790ED00E0AAFF44008A
:1048180010B40B6823F01F020C7A04F01F031A432C
:10482800CB6823F01F03640943EA440343F0010300
:1048380002498860CA600B6110BC704790ED00E0C7
:104848002DE9F04F87B08146009101931446002767
:1048580034E06FF0150653E0D84569D12946F0B227
:1048680010F078F829E0584B9860D96801F01F01DA
:1048780022F01F020A43DA602946E0B210F06AF813
:10488800044610F1160F00F09780013415E0013B43
:104898004D4988600A6902F01F0223F01F03134381
:1048A8000B612946E0B210F055F8044610F1160FD6
:1048B80000F08280013400E001340137009B9F4200
:1048C8007ADA07EB47054FEA850A09EB8505D5F83B
:1048D8000480B8F1000FF0D0019B23B1284610F0F6
:1048E8001CF8002864D059F80AB0584610F00BF8A4
:1048F800064608EB0B00013810F005F88642A8D1EF
:1049080016F1160F57D0631EB34259DB30462E4BB3
:104918009E60D96821F01F019E601B6943F01F0843
:1049280059F80A306A681A4402F1FF3B994293D059
:10493800994298D0D845AAD0013B234906468860B9
:104948000A6902F01F0223F01F0313430B61294673
:10495800E0B20FF0FFFF044610F1160F2CD0013023
:10496800194B9E60D9689DF8102061F304028DF8F8
:1049780010201B69C3F34203D2B263F347128DF8C8
:10498800102059F80A306A681344029323F01F0371
:10499800A8EB0B084344013B23F01F03059302A92E
:1049A800C0B20FF0CCFF044610F1160F84D103E01B
:1049B8006FF0150400E03446204607B0BDE8F08FDC
:1049C8006FF01504F8E700BF90ED00E010B5034C58
:1049D80001232278FFF734FF207010BDA9F20020D0
:1049E8002DE9F84307468846002403E06FF01505D3
:1049F80017E00134A0453CDD04EB44039A0007EBC3
:104A080083035E68002EF4D057F8029048460FF0F2
:104A18007AFF054606EB090001380FF074FF85425E
:104A2800E4D104EB8403164A42F8235015F1160F1B
:104A380020D0144B1B78AB421FDD04EB840302EB40
:104A48008303114A95609560D568187B65F3040067
:104A580018731069C0F342001D7B60F347151D737E
:104A6800D16821F01F015960126922F01F021A61F2
:104A7800BFE700252846BDE8F8836FF01505F9E77C
:104A880088F00020A9F2002090ED00E0034B0522F9
:104A98005A60BFF34F8FBFF36F8F704790ED00E000
:104AA800BFF35F8F014B00225A60704790ED00E022
:104AB80038B50E4B1D68082D15D8FFF7F1FFFFF725
:104AC8009FFE0024A54208D9084B596801EB041140
:104AD8002046FFF79DFE0134F4E7054B1D70FFF7F4
:104AE800D5FF002038BD4FF0FF30FBE7D02303008F
:104AF800A9F20020014B1860704700BF2C0000206D
:104B080070B506460D46002400E00134AC4208DAD0
:104B1800054B1B68984730550A2801D00D28F4D159
:104B28000134204670BD00BF28000020F8B50546B6
:104B38000F46002404E0094B1B683078984701347D
:104B4800BC4208DA2E192B5D0A2BF4D1034B1B68E3
:104B58000D209847EFE73846F8BD00BF2C0000202D
:104B680008B50522024901200FF024FFFEE700BF27
:104B7800B82303000246084B1968084BC8180A44B2
:104B8800C3F1005303F5E0239A4202D2024B1A60A4
:104B980070474FF0FF3070479CF00020B07D012037
:104BA8000048704738F10020014BC01A4011704787
:104BB800B0F0002038B505460C46FFF7F5FF014672
:104BC800402203480FF09DFF01462846A04738BD04
:104BD8003097010030B583B005460C46FFF7E4FF77
:104BE8000146402300932346054A06480FF0A3FFD9
:104BF800011E01DB03B030BD2846A047FAE700BF1D
:104C0800874B01003097010008B5052815D8DFE863
:104C180000F0031A1414151000210D480FF0FCFEC3
:104C2800836813F0070F08D1002109480FF057FFD8
:104C380003E0022106480FF052FF08BD0321044893
:104C48000FF04DFFF9E7012101480FF048FFF4E7A5
:104C58003097010010B54FF02003EFF3118483F370
:104C68001288BFF36F8F134A136843F0020313606F
:104C780013F0010F08D1002384F31188BFF36F8F5D
:104C88009BB90FF084FF10BD4FF05023D3F80C24CC
:104C9800D3F80C3412F0010F01D10023ECE7FFF731
:104CA8007FFF0FF009FF0123E6E7002102480FF01C
:104CB80016FFE8E760F100203097010008B5084BBF
:104CC800D3E8EF2F22F00201C3E8E01F0028F7D154
:104CD80012F0010F00D008BD0FF06DFFFBE700BF19
:104CE80060F1002000B585B0CDF800D0CDF804D033
:104CF80000230293012303936B46074A0FF037FF03
:104D0800002805DB4FF48042002368460CF078FD4C
:104D180005B05DF804FB00BFE74B010070B506461F
:104D2800002201210520FFF797FA0520FFF776FA00
:104D3800114801F02BF9114B984219D110F072FA71
:104D48000024032C12D8214630460FF065FE054694
:104D5800214630460FF06BFE09490FF051FA002842
:104D680005DB0123AB601C44E4B2EAE7002070BD18
:104D78006FF00400FBE700BF114C00000000AD0B12
:104D88003424030070B50546012807D14FF050239D
:104D9800D3F81C3403F00303022B3FD013F08FFC2D
:104DA80020B9304B1B789BB1002300E001231C463F
:104DB80083B14FF02003EFF3118683F31288BFF31A
:104DC8006F8FA4B94FF050230222C3F808230EE0D6
:104DD8000123ECE70026F4E70CB33046FFF714FA9A
:104DE8004FF05023D3F81835DBB2012B1CD04FF00D
:104DF8005022D2F8183403F00303D2F8182412F41E
:104E0800803F26D10022002AE6D0022B01D0012DB6
:104E1800E2D104B386F31188BFF36F8F70BD2120F0
:104E280000210DF0A9F8DBE70F4B1B68002BDED043
:104E38000D4B00221A601B684FF050230222C3F862
:104E480018250A4B2022C3F88021094B01221A6039
:104E5800CDE70122D7E74FF050230222C3F80423FD
:104E6800DCE700BFABF200200451005000E100E095
:104E78000850005010B504460E4B0121D3E8EF2F1F
:104E8800C3E8E01F0028F9D11AB1631E012B0CD921
:104E980010BD09480FF0CBFD084900234B60CB60DB
:104EA80001238B600FF0C8F9EFE72046FFF76AFF90
:104EB800EEE700BF64F1002030970100A0F0002069
:104EC80038B50446C5B20B4B1B68284698470128DD
:104ED80007D00A2C07D0084B186883685B682946F6
:104EE8009847204638BD044B186883685B680D21D5
:104EF8009847F0E73000002068F1002010B5044C16
:104F08002046FFF7F7FD2046FEF79CF810BD00BFCE
:104F1800C94E000008B50648064B186013F04AFB56
:104F280018B1FFF7EBFF002008BD6FF01200FBE798
:104F38004897010068F10020F0B44368D3F804C032
:104F4800384B1340384CA34227D012D8062B26D012
:104F580004D9B3F5801F09D1012516E00BB3022B44
:104F680001D1042511E06FF0150049E06FF015003C
:104F780046E02E4CA34216D0B3F5A00F01D103256D
:104F880003E0B3F5800F49D1022512F0100F0CD1C0
:104F980012F0200F36D0012608E00725F5E7062590
:104FA800F3E70025F1E70525EFE70326C2F34024E0
:104FB80012F4807F0CBF0127002712F4007F06D06F
:104FC80012F4006F20D001238B40CCF808304368DE
:104FD800187A01F01F0343EA4011490901291BD03F
:104FE8001348803350F8231001F0E04144EA4702A7
:104FF80042EA860242EA05220A4340F823200020BA
:10500800F0BC70470026D1E712F4806FDFD001238F
:105018008B40CCF80C30DAE70648E2E76FF0150071
:10502800EEE700BF0600F000060010000200400096
:105038000025845000288450F0B405694668E96862
:105048006A69AB69134321EA03010123002010E0D8
:105058004FF0020C1CE0134F803457F8242022F440
:10506800403242EA0C4247F8242021EA0301013089
:105078005B00A1B10B42FAD0347A00F01F0242EA79
:1050880044122C69C44014F0010FE1D14FF0030C15
:1050980002F01F045209012ADDD0034FDCE7F0BCFF
:1050A800704700BF0028845000258450F0B58C4616
:1050B80003694168DF685A699869024327EA020769
:1050C8004A6812691869504027EA00003C460123E3
:1050D800002515E0DFF870E025E002F01F06520910
:1050E800012A2DD0DFF864E006F180025EF8226024
:1050F80026F440364EF8226024EA030401355B00AA
:105108000CB32342FAD00E7A05F01F0242EA461287
:105118003B42E2D102F01F064FEA521EBEF1010FD8
:10512800D8D0DFF828E080365EF82660C6F301465E
:10513800022ED2D1DCF800601E43CCF80060CCE728
:10514800DFF804E0D0E7F0BD002884500025845043
:1051580010B5144BD3F80443E4B2002300E0013344
:10516800072B1DD803F5A2720E4951F82220C2F36D
:1051780005229042F3D124FA03F212F0010FEED087
:105188000A4603F5A27051F8201021F0010142F8F7
:10519800201001219940C2F80813D8B201F068F92B
:1051A80010BD00BF00D0005070B582B004460D4657
:1051B8000DF1070001F078F91C4B984232D19DF8A7
:1051C800073003F140029200194E03F5A27356F816
:1051D800231021F44F3121F4407146F8231056F87A
:1051E8002310240204F47C542D0405F440352C4388
:1051F8000C4346F8234002F1A04303F55043002036
:1052080018601B689DF8071001F5A27356F8232053
:1052180042F0010246F8232001238B40C6F80433EC
:1052280002B070BD6FF01200FAE700BF0000AD0BCE
:1052380000D0005070B50D46066943681B7A01F02E
:105248001F0444EA43142046FFF782FF04F01F00BE
:105258006309012B1FD01F4A00F1800152F8213049
:1052680023F4403342F82130F368EB4013F0010F88
:105278002ED07369EB4013F0010F15D0B369EB40E2
:1052880013F0010F09D1316921FA05F515F0010F65
:1052980008D0012102E0104ADEE703212046FFF78B
:1052A80083FF16E00221F9E7316921FA05F515F0C7
:1052B800010F0BD10321803052F8203023F4403302
:1052C80043EA014342F82030002002E00221F2E7DD
:1052D800002070BD0025845000288450F8B504696A
:1052E80045682E7A01F01F0545EA4615B2F5A03F3C
:1052F80025D0B2F5005F34D0E56801268E403543ED
:10530800E560B2F5A03F32D0626901258D4022EAFE
:1053180005026261B3F5C02F2ED0A26901258D4028
:1053280022EA0502A261B3F5802F2AD0236901225F
:105338008A4023EA02032361FFF77CFFF8BD05F0EA
:105348001F066D09012D0AD0104F06F1800557F888
:10535800255015F0010FCCD06FF08500EEE70C4F0B
:10536800F3E7E56801268E4025EA0605C8E7626985
:1053780001258D402A43CCE7A26901258D402A43A7
:10538800D0E7236901228A401343D4E700258450DB
:105398000028845008B50B4B1B780BB1002008BDC2
:1053A800084B01221A70002205210D20FEF754FF38
:1053B8000D20FEF733FF044B4FF00042C3F80423DF
:1053C800ECE700BFAAF2002000D0005070B584B00E
:1053D80000230293039300930193464B1C680CB976
:1053E800002111E0444D69462846FFF75FFE029010
:1053F80001A905F11800FFF759FE03903D4B002263
:105408001A601B68ECE7013107292DD801F1400328
:105418009B009AB201238B403848D0F8040303421A
:10542800F1D002F1A04303F550431B68002BEAD0EA
:1054380001F5A273314850F82300C0F34033C0F39C
:105448000420012505FA00F004AD05EB830353F8A9
:10545800085C054343F8085C02F1A04303F5504398
:1054680000221A601B68CEE7029E2EB9039EEEB991
:10547800002C35D104B070BD214B596819B10D46C7
:1054880049B10D6807E00D4605E06DB12B4605B141
:105498002B6829461D460029E8D08A683240F4D096
:1054A8004B6815489847F0E72B46F2E7154B5968C3
:1054B80019B10D4649B10D6807E00D4605E06DB11B
:1054C8002B4605B12B6829461D460029D0D08A688D
:1054D8003240F4D04B680C489847F0E72B46F2E787
:1054E800054C2046FFF7A8FD04F11800FFF7A4FDBE
:1054F800C0E700BF7CD100507897010000D0005071
:105508006CF1002088F100209097010043681A6828
:10551800B1F5164F6FD03AD8B1F5165F6ED00AD9EB
:10552800B1F5E14F75D024D947F6122399422BD112
:105538004FF4000313E0B1F5966F61D007D9B1F5C8
:10554800166F63D0B1F5965F10D13C4B07E0B1F50B
:10555800967F58D0B1F5167F05D14FF41C33C2F8A9
:105568002435002070476FF0150070476FF0150064
:105578007047B1F5615F4ED0B1F5964F01D1304B10
:10558800EDE76FF0150070476FF015007047B1F543
:10559800613F42D009D9B1F5612F46D01FD9294BB7
:1055A800994248D14FF08053D9E7B1F5963F37D0AB
:1055B80005D9B1F5E13F0FD14FF0EB73CFE74DF6C9
:1055C800C02399422ED0B1F5614F02D14FF46B033D
:1055D800C5E76FF0150070476FF0150070471A4B5C
:1055E800994225D0B1F5E12F02D14FF0E863B6E733
:1055F8006FF0150070474FF41D03B0E7134BAEE78B
:105608004FF49E23ABE74FF4A033A8E74FF41D23D4
:10561800A5E70F4BA3E70F4BA1E74FF06C739EE78D
:105628000D4B9CE74FF4650399E74FF0706396E7DD
:105638004FF0806393E76FF01500704700B01300D8
:1056480000A04E0040420F0090D0030000502700F9
:1056580000C0750000F03A0000903A012DE9F041D1
:1056680005460F46D0F8108013F029F820B9164BDC
:105678001B78ABB1002300E001239BB14FF020035E
:10568800EFF3118483F31288BFF36F8F2646284601
:105698000FF0E4FB50B984F31188BFF36F8FEDE787
:1056A8000123EAE728460FF0F6FC0646414601F8D2
:1056B800147F012228460FF0EBFB86F31188BFF315
:1056C8006F8FBDE8F08100BFABF2002038B505460A
:1056D8000C4601F1160000F07DFE0A4B98420ED1EF
:1056E800A37D43F00043C5F8A031C5F88C30A27DF6
:1056F80001239340044AC2F80435002038BD6FF0F6
:105708000400FBE70000AD0B00700150F8B54468D9
:10571800256806690023C5F800353060A36803F0E2
:105728001F015B09012B00F0A0805A4A01238B401E
:105738009360A36803F01F025B09012B00F09780B8
:105748005449803251F8223003F0E04343F0030318
:1057580041F82230E368B3F1FF3F10D0277E03F011
:105768001F025B09012B00F084804A49803251F8FE
:10577800223003F0E04343EA870341F82230A2686D
:10578800E368C5F80C25C5F814352369B3F1FF3F64
:105798000FD0677E03F01F025B09012B6BD03D49D8
:1057A800803251F8223003F0E04343EA870341F89E
:1057B80022306369B3F1FF3F18D003F01F025B0981
:1057C800012B5AD03349012393408B60636903F05E
:1057D8001F025B09012B52D02E49803251F822302A
:1057E80003F0E04343F0030341F822306269236980
:1057F800C5F80825C5F81035016904310FF0B2FA6B
:10580800074680BB636813F0080F3AD10823C5F830
:105818000035E368B3F1FF3F0CD00023C5F8103121
:10582800D5F8103106F11503C5F834350123C5F84C
:1058380038352B60636813F0080F03D14FF4807379
:10584800C5F80433636813F0100F03D04FF48003D6
:10585800C5F804331436C5F844650023C5F848353F
:105868000123AB60EB603846F8BD0B4A5EE70A4996
:1058780067E709497AE7084992E70749A3E706492C
:10588800ABE731462846FFF721FF0028BEDA074676
:10589800E9E700BF002584500028845021F07F41AB
:1058A80000F5A870014B43F82010704700500150D4
:1058B80000F5A870014B53F82000704700500150C4
:1058C8004FF480338340024AC2F84433704700BF24
:1058D800005001504FF480338340024AC2F84833E5
:1058E800704700BF00500150014BD3F804057047C2
:1058F8000050015010B501238340DC430D4AD2E823
:10590800EF1F01EA040CC2E8EECFBEF1000FF6D19A
:105918004FF4803202FA00F002F15022C2F8080374
:10592800BFF35F8FBFF36F8F0B4214BF01200020BE
:1059380010BD00BFC8F1002070B504460FF0F7FB9A
:1059480005464FF48033A340154AD2F80423134286
:1059580005D1002628460FF0F3FB304670BD012321
:10596800A340DB430F4AD2E8EF1F01EA0300C2E875
:10597800E60F002EF7D159B904F150039B009BB2F2
:1059880003F1502303F580331B6813B1012300E0B2
:1059980001231E46002BDDD020460FF0B9FBD9E7C6
:1059A80000500150C4F1002001B970470123834021
:1059B8000E4AD2E8EF1F1943C2E8EC1FBCF1000FF2
:1059C800F7D14FF480338340094AC2F80433094BB6
:1059D800D3E8AF3F23FA00F010F0010FE5D0064BF3
:1059E8004FF40012C3F80021DFE700BFC8F1002020
:1059F80000500150C4F1002000E100E0F8B507466E
:105A080014461E46104619460FF08EFB0546154BE8
:105A18001A68A01A1C605E60A5F50013B3F5400F64
:105A280008D300240CF00EFC3846FFF741FFA842CB
:105A38000CD0F8BD0C4B19680B0A0A06521943F131
:105A480000030A49C1E900230124EBE71CB13846E9
:105A5800FFF736FFEDE74FF400013846FFF71EFF6A
:105A6800F5E700BF58030020CCF1002040030020D8
:105A780038B50D4B1B681D0A1C06BFF35F8FFFF777
:105A880033FF0346201845F10001B3F5801F0AD201
:105A9800064BD3E90023994208BF904203D210F184
:105AA800807041F1000138BDCCF100204003002096
:105AB8002DE9F843064614461D46104619460FF0D0
:105AC80033FB0746FFF7D4FFA94208BFA0421ED206
